{
  "_format": "hh-sol-artifact-1",
  "contractName": "MyGovernor",
  "sourceName": "contracts/MyGovernor.sol",
  "abi": [
    {
      "inputs": [
        {
          "internalType": "contract IVotes",
          "name": "_token",
          "type": "address"
        },
        {
          "internalType": "contract TimelockController",
          "name": "_timelock",
          "type": "address"
        }
      ],
      "stateMutability": "nonpayable",
      "type": "constructor"
    },
    {
      "inputs": [],
      "name": "CheckpointUnorderedInsertion",
      "type": "error"
    },
    {
      "inputs": [],
      "name": "FailedCall",
      "type": "error"
    },
    {
      "inputs": [
        {
          "internalType": "address",
          "name": "voter",
          "type": "address"
        }
      ],
      "name": "GovernorAlreadyCastVote",
      "type": "error"
    },
    {
      "inputs": [
        {
          "internalType": "uint256",
          "name": "proposalId",
          "type": "uint256"
        }
      ],
      "name": "GovernorAlreadyQueuedProposal",
      "type": "error"
    },
    {
      "inputs": [],
      "name": "GovernorDisabledDeposit",
      "type": "error"
    },
    {
      "inputs": [
        {
          "internalType": "address",
          "name": "proposer",
          "type": "address"
        },
        {
          "internalType": "uint256",
          "name": "votes",
          "type": "uint256"
        },
        {
          "internalType": "uint256",
          "name": "threshold",
          "type": "uint256"
        }
      ],
      "name": "GovernorInsufficientProposerVotes",
      "type": "error"
    },
    {
      "inputs": [
        {
          "internalType": "uint256",
          "name": "targets",
          "type": "uint256"
        },
        {
          "internalType": "uint256",
          "name": "calldatas",
          "type": "uint256"
        },
        {
          "internalType": "uint256",
          "name": "values",
          "type": "uint256"
        }
      ],
      "name": "GovernorInvalidProposalLength",
      "type": "error"
    },
    {
      "inputs": [
        {
          "internalType": "uint256",
          "name": "quorumNumerator",
          "type": "uint256"
        },
        {
          "internalType": "uint256",
          "name": "quorumDenominator",
          "type": "uint256"
        }
      ],
      "name": "GovernorInvalidQuorumFraction",
      "type": "error"
    },
    {
      "inputs": [
        {
          "internalType": "address",
          "name": "voter",
          "type": "address"
        }
      ],
      "name": "GovernorInvalidSignature",
      "type": "error"
    },
    {
      "inputs": [],
      "name": "GovernorInvalidVoteParams",
      "type": "error"
    },
    {
      "inputs": [],
      "name": "GovernorInvalidVoteType",
      "type": "error"
    },
    {
      "inputs": [
        {
          "internalType": "uint256",
          "name": "votingPeriod",
          "type": "uint256"
        }
      ],
      "name": "GovernorInvalidVotingPeriod",
      "type": "error"
    },
    {
      "inputs": [
        {
          "internalType": "uint256",
          "name": "proposalId",
          "type": "uint256"
        }
      ],
      "name": "GovernorNonexistentProposal",
      "type": "error"
    },
    {
      "inputs": [
        {
          "internalType": "uint256",
          "name": "proposalId",
          "type": "uint256"
        }
      ],
      "name": "GovernorNotQueuedProposal",
      "type": "error"
    },
    {
      "inputs": [
        {
          "internalType": "address",
          "name": "account",
          "type": "address"
        }
      ],
      "name": "GovernorOnlyExecutor",
      "type": "error"
    },
    {
      "inputs": [
        {
          "internalType": "address",
          "name": "account",
          "type": "address"
        }
      ],
      "name": "GovernorOnlyProposer",
      "type": "error"
    },
    {
      "inputs": [],
      "name": "GovernorQueueNotImplemented",
      "type": "error"
    },
    {
      "inputs": [
        {
          "internalType": "address",
          "name": "proposer",
          "type": "address"
        }
      ],
      "name": "GovernorRestrictedProposer",
      "type": "error"
    },
    {
      "inputs": [
        {
          "internalType": "uint256",
          "name": "proposalId",
          "type": "uint256"
        },
        {
          "internalType": "enum IGovernor.ProposalState",
          "name": "current",
          "type": "uint8"
        },
        {
          "internalType": "bytes32",
          "name": "expectedStates",
          "type": "bytes32"
        }
      ],
      "name": "GovernorUnexpectedProposalState",
      "type": "error"
    },
    {
      "inputs": [
        {
          "internalType": "address",
          "name": "account",
          "type": "address"
        },
        {
          "internalType": "uint256",
          "name": "currentNonce",
          "type": "uint256"
        }
      ],
      "name": "InvalidAccountNonce",
      "type": "error"
    },
    {
      "inputs": [],
      "name": "InvalidShortString",
      "type": "error"
    },
    {
      "inputs": [
        {
          "internalType": "uint8",
          "name": "bits",
          "type": "uint8"
        },
        {
          "internalType": "uint256",
          "name": "value",
          "type": "uint256"
        }
      ],
      "name": "SafeCastOverflowedUintDowncast",
      "type": "error"
    },
    {
      "inputs": [
        {
          "internalType": "string",
          "name": "str",
          "type": "string"
        }
      ],
      "name": "StringTooLong",
      "type": "error"
    },
    {
      "anonymous": false,
      "inputs": [],
      "name": "EIP712DomainChanged",
      "type": "event"
    },
    {
      "anonymous": false,
      "inputs": [
        {
          "indexed": false,
          "internalType": "uint256",
          "name": "proposalId",
          "type": "uint256"
        }
      ],
      "name": "ProposalCanceled",
      "type": "event"
    },
    {
      "anonymous": false,
      "inputs": [
        {
          "indexed": false,
          "internalType": "uint256",
          "name": "proposalId",
          "type": "uint256"
        },
        {
          "indexed": false,
          "internalType": "address",
          "name": "proposer",
          "type": "address"
        },
        {
          "indexed": false,
          "internalType": "address[]",
          "name": "targets",
          "type": "address[]"
        },
        {
          "indexed": false,
          "internalType": "uint256[]",
          "name": "values",
          "type": "uint256[]"
        },
        {
          "indexed": false,
          "internalType": "string[]",
          "name": "signatures",
          "type": "string[]"
        },
        {
          "indexed": false,
          "internalType": "bytes[]",
          "name": "calldatas",
          "type": "bytes[]"
        },
        {
          "indexed": false,
          "internalType": "uint256",
          "name": "voteStart",
          "type": "uint256"
        },
        {
          "indexed": false,
          "internalType": "uint256",
          "name": "voteEnd",
          "type": "uint256"
        },
        {
          "indexed": false,
          "internalType": "string",
          "name": "description",
          "type": "string"
        }
      ],
      "name": "ProposalCreated",
      "type": "event"
    },
    {
      "anonymous": false,
      "inputs": [
        {
          "indexed": false,
          "internalType": "uint256",
          "name": "proposalId",
          "type": "uint256"
        }
      ],
      "name": "ProposalExecuted",
      "type": "event"
    },
    {
      "anonymous": false,
      "inputs": [
        {
          "indexed": false,
          "internalType": "uint256",
          "name": "proposalId",
          "type": "uint256"
        },
        {
          "indexed": false,
          "internalType": "uint256",
          "name": "etaSeconds",
          "type": "uint256"
        }
      ],
      "name": "ProposalQueued",
      "type": "event"
    },
    {
      "anonymous": false,
      "inputs": [
        {
          "indexed": false,
          "internalType": "uint256",
          "name": "oldQuorumNumerator",
          "type": "uint256"
        },
        {
          "indexed": false,
          "internalType": "uint256",
          "name": "newQuorumNumerator",
          "type": "uint256"
        }
      ],
      "name": "QuorumNumeratorUpdated",
      "type": "event"
    },
    {
      "anonymous": false,
      "inputs": [
        {
          "indexed": false,
          "internalType": "address",
          "name": "oldTimelock",
          "type": "address"
        },
        {
          "indexed": false,
          "internalType": "address",
          "name": "newTimelock",
          "type": "address"
        }
      ],
      "name": "TimelockChange",
      "type": "event"
    },
    {
      "anonymous": false,
      "inputs": [
        {
          "indexed": true,
          "internalType": "address",
          "name": "voter",
          "type": "address"
        },
        {
          "indexed": false,
          "internalType": "uint256",
          "name": "proposalId",
          "type": "uint256"
        },
        {
          "indexed": false,
          "internalType": "uint8",
          "name": "support",
          "type": "uint8"
        },
        {
          "indexed": false,
          "internalType": "uint256",
          "name": "weight",
          "type": "uint256"
        },
        {
          "indexed": false,
          "internalType": "string",
          "name": "reason",
          "type": "string"
        }
      ],
      "name": "VoteCast",
      "type": "event"
    },
    {
      "anonymous": false,
      "inputs": [
        {
          "indexed": true,
          "internalType": "address",
          "name": "voter",
          "type": "address"
        },
        {
          "indexed": false,
          "internalType": "uint256",
          "name": "proposalId",
          "type": "uint256"
        },
        {
          "indexed": false,
          "internalType": "uint8",
          "name": "support",
          "type": "uint8"
        },
        {
          "indexed": false,
          "internalType": "uint256",
          "name": "weight",
          "type": "uint256"
        },
        {
          "indexed": false,
          "internalType": "string",
          "name": "reason",
          "type": "string"
        },
        {
          "indexed": false,
          "internalType": "bytes",
          "name": "params",
          "type": "bytes"
        }
      ],
      "name": "VoteCastWithParams",
      "type": "event"
    },
    {
      "inputs": [],
      "name": "BALLOT_TYPEHASH",
      "outputs": [
        {
          "internalType": "bytes32",
          "name": "",
          "type": "bytes32"
        }
      ],
      "stateMutability": "view",
      "type": "function"
    },
    {
      "inputs": [],
      "name": "CLOCK_MODE",
      "outputs": [
        {
          "internalType": "string",
          "name": "",
          "type": "string"
        }
      ],
      "stateMutability": "view",
      "type": "function"
    },
    {
      "inputs": [],
      "name": "COUNTING_MODE",
      "outputs": [
        {
          "internalType": "string",
          "name": "",
          "type": "string"
        }
      ],
      "stateMutability": "pure",
      "type": "function"
    },
    {
      "inputs": [],
      "name": "EXTENDED_BALLOT_TYPEHASH",
      "outputs": [
        {
          "internalType": "bytes32",
          "name": "",
          "type": "bytes32"
        }
      ],
      "stateMutability": "view",
      "type": "function"
    },
    {
      "inputs": [
        {
          "internalType": "address[]",
          "name": "targets",
          "type": "address[]"
        },
        {
          "internalType": "uint256[]",
          "name": "values",
          "type": "uint256[]"
        },
        {
          "internalType": "bytes[]",
          "name": "calldatas",
          "type": "bytes[]"
        },
        {
          "internalType": "bytes32",
          "name": "descriptionHash",
          "type": "bytes32"
        }
      ],
      "name": "cancel",
      "outputs": [
        {
          "internalType": "uint256",
          "name": "",
          "type": "uint256"
        }
      ],
      "stateMutability": "nonpayable",
      "type": "function"
    },
    {
      "inputs": [
        {
          "internalType": "uint256",
          "name": "proposalId",
          "type": "uint256"
        },
        {
          "internalType": "uint8",
          "name": "support",
          "type": "uint8"
        }
      ],
      "name": "castVote",
      "outputs": [
        {
          "internalType": "uint256",
          "name": "",
          "type": "uint256"
        }
      ],
      "stateMutability": "nonpayable",
      "type": "function"
    },
    {
      "inputs": [
        {
          "internalType": "uint256",
          "name": "proposalId",
          "type": "uint256"
        },
        {
          "internalType": "uint8",
          "name": "support",
          "type": "uint8"
        },
        {
          "internalType": "address",
          "name": "voter",
          "type": "address"
        },
        {
          "internalType": "bytes",
          "name": "signature",
          "type": "bytes"
        }
      ],
      "name": "castVoteBySig",
      "outputs": [
        {
          "internalType": "uint256",
          "name": "",
          "type": "uint256"
        }
      ],
      "stateMutability": "nonpayable",
      "type": "function"
    },
    {
      "inputs": [
        {
          "internalType": "uint256",
          "name": "proposalId",
          "type": "uint256"
        },
        {
          "internalType": "uint8",
          "name": "support",
          "type": "uint8"
        },
        {
          "internalType": "string",
          "name": "reason",
          "type": "string"
        }
      ],
      "name": "castVoteWithReason",
      "outputs": [
        {
          "internalType": "uint256",
          "name": "",
          "type": "uint256"
        }
      ],
      "stateMutability": "nonpayable",
      "type": "function"
    },
    {
      "inputs": [
        {
          "internalType": "uint256",
          "name": "proposalId",
          "type": "uint256"
        },
        {
          "internalType": "uint8",
          "name": "support",
          "type": "uint8"
        },
        {
          "internalType": "string",
          "name": "reason",
          "type": "string"
        },
        {
          "internalType": "bytes",
          "name": "params",
          "type": "bytes"
        }
      ],
      "name": "castVoteWithReasonAndParams",
      "outputs": [
        {
          "internalType": "uint256",
          "name": "",
          "type": "uint256"
        }
      ],
      "stateMutability": "nonpayable",
      "type": "function"
    },
    {
      "inputs": [
        {
          "internalType": "uint256",
          "name": "proposalId",
          "type": "uint256"
        },
        {
          "internalType": "uint8",
          "name": "support",
          "type": "uint8"
        },
        {
          "internalType": "address",
          "name": "voter",
          "type": "address"
        },
        {
          "internalType": "string",
          "name": "reason",
          "type": "string"
        },
        {
          "internalType": "bytes",
          "name": "params",
          "type": "bytes"
        },
        {
          "internalType": "bytes",
          "name": "signature",
          "type": "bytes"
        }
      ],
      "name": "castVoteWithReasonAndParamsBySig",
      "outputs": [
        {
          "internalType": "uint256",
          "name": "",
          "type": "uint256"
        }
      ],
      "stateMutability": "nonpayable",
      "type": "function"
    },
    {
      "inputs": [],
      "name": "clock",
      "outputs": [
        {
          "internalType": "uint48",
          "name": "",
          "type": "uint48"
        }
      ],
      "stateMutability": "view",
      "type": "function"
    },
    {
      "inputs": [],
      "name": "eip712Domain",
      "outputs": [
        {
          "internalType": "bytes1",
          "name": "fields",
          "type": "bytes1"
        },
        {
          "internalType": "string",
          "name": "name",
          "type": "string"
        },
        {
          "internalType": "string",
          "name": "version",
          "type": "string"
        },
        {
          "internalType": "uint256",
          "name": "chainId",
          "type": "uint256"
        },
        {
          "internalType": "address",
          "name": "verifyingContract",
          "type": "address"
        },
        {
          "internalType": "bytes32",
          "name": "salt",
          "type": "bytes32"
        },
        {
          "internalType": "uint256[]",
          "name": "extensions",
          "type": "uint256[]"
        }
      ],
      "stateMutability": "view",
      "type": "function"
    },
    {
      "inputs": [
        {
          "internalType": "address[]",
          "name": "targets",
          "type": "address[]"
        },
        {
          "internalType": "uint256[]",
          "name": "values",
          "type": "uint256[]"
        },
        {
          "internalType": "bytes[]",
          "name": "calldatas",
          "type": "bytes[]"
        },
        {
          "internalType": "bytes32",
          "name": "descriptionHash",
          "type": "bytes32"
        }
      ],
      "name": "execute",
      "outputs": [
        {
          "internalType": "uint256",
          "name": "",
          "type": "uint256"
        }
      ],
      "stateMutability": "payable",
      "type": "function"
    },
    {
      "inputs": [
        {
          "internalType": "address",
          "name": "account",
          "type": "address"
        },
        {
          "internalType": "uint256",
          "name": "timepoint",
          "type": "uint256"
        }
      ],
      "name": "getVotes",
      "outputs": [
        {
          "internalType": "uint256",
          "name": "",
          "type": "uint256"
        }
      ],
      "stateMutability": "view",
      "type": "function"
    },
    {
      "inputs": [
        {
          "internalType": "address",
          "name": "account",
          "type": "address"
        },
        {
          "internalType": "uint256",
          "name": "timepoint",
          "type": "uint256"
        },
        {
          "internalType": "bytes",
          "name": "params",
          "type": "bytes"
        }
      ],
      "name": "getVotesWithParams",
      "outputs": [
        {
          "internalType": "uint256",
          "name": "",
          "type": "uint256"
        }
      ],
      "stateMutability": "view",
      "type": "function"
    },
    {
      "inputs": [
        {
          "internalType": "uint256",
          "name": "proposalId",
          "type": "uint256"
        },
        {
          "internalType": "address",
          "name": "account",
          "type": "address"
        }
      ],
      "name": "hasVoted",
      "outputs": [
        {
          "internalType": "bool",
          "name": "",
          "type": "bool"
        }
      ],
      "stateMutability": "view",
      "type": "function"
    },
    {
      "inputs": [
        {
          "internalType": "address[]",
          "name": "targets",
          "type": "address[]"
        },
        {
          "internalType": "uint256[]",
          "name": "values",
          "type": "uint256[]"
        },
        {
          "internalType": "bytes[]",
          "name": "calldatas",
          "type": "bytes[]"
        },
        {
          "internalType": "bytes32",
          "name": "descriptionHash",
          "type": "bytes32"
        }
      ],
      "name": "hashProposal",
      "outputs": [
        {
          "internalType": "uint256",
          "name": "",
          "type": "uint256"
        }
      ],
      "stateMutability": "pure",
      "type": "function"
    },
    {
      "inputs": [],
      "name": "name",
      "outputs": [
        {
          "internalType": "string",
          "name": "",
          "type": "string"
        }
      ],
      "stateMutability": "view",
      "type": "function"
    },
    {
      "inputs": [
        {
          "internalType": "address",
          "name": "owner",
          "type": "address"
        }
      ],
      "name": "nonces",
      "outputs": [
        {
          "internalType": "uint256",
          "name": "",
          "type": "uint256"
        }
      ],
      "stateMutability": "view",
      "type": "function"
    },
    {
      "inputs": [
        {
          "internalType": "address",
          "name": "",
          "type": "address"
        },
        {
          "internalType": "address",
          "name": "",
          "type": "address"
        },
        {
          "internalType": "uint256[]",
          "name": "",
          "type": "uint256[]"
        },
        {
          "internalType": "uint256[]",
          "name": "",
          "type": "uint256[]"
        },
        {
          "internalType": "bytes",
          "name": "",
          "type": "bytes"
        }
      ],
      "name": "onERC1155BatchReceived",
      "outputs": [
        {
          "internalType": "bytes4",
          "name": "",
          "type": "bytes4"
        }
      ],
      "stateMutability": "nonpayable",
      "type": "function"
    },
    {
      "inputs": [
        {
          "internalType": "address",
          "name": "",
          "type": "address"
        },
        {
          "internalType": "address",
          "name": "",
          "type": "address"
        },
        {
          "internalType": "uint256",
          "name": "",
          "type": "uint256"
        },
        {
          "internalType": "uint256",
          "name": "",
          "type": "uint256"
        },
        {
          "internalType": "bytes",
          "name": "",
          "type": "bytes"
        }
      ],
      "name": "onERC1155Received",
      "outputs": [
        {
          "internalType": "bytes4",
          "name": "",
          "type": "bytes4"
        }
      ],
      "stateMutability": "nonpayable",
      "type": "function"
    },
    {
      "inputs": [
        {
          "internalType": "address",
          "name": "",
          "type": "address"
        },
        {
          "internalType": "address",
          "name": "",
          "type": "address"
        },
        {
          "internalType": "uint256",
          "name": "",
          "type": "uint256"
        },
        {
          "internalType": "bytes",
          "name": "",
          "type": "bytes"
        }
      ],
      "name": "onERC721Received",
      "outputs": [
        {
          "internalType": "bytes4",
          "name": "",
          "type": "bytes4"
        }
      ],
      "stateMutability": "nonpayable",
      "type": "function"
    },
    {
      "inputs": [
        {
          "internalType": "uint256",
          "name": "proposalId",
          "type": "uint256"
        }
      ],
      "name": "proposalDeadline",
      "outputs": [
        {
          "internalType": "uint256",
          "name": "",
          "type": "uint256"
        }
      ],
      "stateMutability": "view",
      "type": "function"
    },
    {
      "inputs": [
        {
          "internalType": "uint256",
          "name": "proposalId",
          "type": "uint256"
        }
      ],
      "name": "proposalEta",
      "outputs": [
        {
          "internalType": "uint256",
          "name": "",
          "type": "uint256"
        }
      ],
      "stateMutability": "view",
      "type": "function"
    },
    {
      "inputs": [
        {
          "internalType": "uint256",
          "name": "proposalId",
          "type": "uint256"
        }
      ],
      "name": "proposalNeedsQueuing",
      "outputs": [
        {
          "internalType": "bool",
          "name": "",
          "type": "bool"
        }
      ],
      "stateMutability": "view",
      "type": "function"
    },
    {
      "inputs": [
        {
          "internalType": "uint256",
          "name": "proposalId",
          "type": "uint256"
        }
      ],
      "name": "proposalProposer",
      "outputs": [
        {
          "internalType": "address",
          "name": "",
          "type": "address"
        }
      ],
      "stateMutability": "view",
      "type": "function"
    },
    {
      "inputs": [
        {
          "internalType": "uint256",
          "name": "proposalId",
          "type": "uint256"
        }
      ],
      "name": "proposalSnapshot",
      "outputs": [
        {
          "internalType": "uint256",
          "name": "",
          "type": "uint256"
        }
      ],
      "stateMutability": "view",
      "type": "function"
    },
    {
      "inputs": [],
      "name": "proposalThreshold",
      "outputs": [
        {
          "internalType": "uint256",
          "name": "",
          "type": "uint256"
        }
      ],
      "stateMutability": "pure",
      "type": "function"
    },
    {
      "inputs": [
        {
          "internalType": "uint256",
          "name": "proposalId",
          "type": "uint256"
        }
      ],
      "name": "proposalVotes",
      "outputs": [
        {
          "internalType": "uint256",
          "name": "againstVotes",
          "type": "uint256"
        },
        {
          "internalType": "uint256",
          "name": "forVotes",
          "type": "uint256"
        },
        {
          "internalType": "uint256",
          "name": "abstainVotes",
          "type": "uint256"
        }
      ],
      "stateMutability": "view",
      "type": "function"
    },
    {
      "inputs": [
        {
          "internalType": "address[]",
          "name": "targets",
          "type": "address[]"
        },
        {
          "internalType": "uint256[]",
          "name": "values",
          "type": "uint256[]"
        },
        {
          "internalType": "bytes[]",
          "name": "calldatas",
          "type": "bytes[]"
        },
        {
          "internalType": "string",
          "name": "description",
          "type": "string"
        }
      ],
      "name": "propose",
      "outputs": [
        {
          "internalType": "uint256",
          "name": "",
          "type": "uint256"
        }
      ],
      "stateMutability": "nonpayable",
      "type": "function"
    },
    {
      "inputs": [
        {
          "internalType": "address[]",
          "name": "targets",
          "type": "address[]"
        },
        {
          "internalType": "uint256[]",
          "name": "values",
          "type": "uint256[]"
        },
        {
          "internalType": "bytes[]",
          "name": "calldatas",
          "type": "bytes[]"
        },
        {
          "internalType": "bytes32",
          "name": "descriptionHash",
          "type": "bytes32"
        }
      ],
      "name": "queue",
      "outputs": [
        {
          "internalType": "uint256",
          "name": "",
          "type": "uint256"
        }
      ],
      "stateMutability": "nonpayable",
      "type": "function"
    },
    {
      "inputs": [
        {
          "internalType": "uint256",
          "name": "timepoint",
          "type": "uint256"
        }
      ],
      "name": "quorum",
      "outputs": [
        {
          "internalType": "uint256",
          "name": "",
          "type": "uint256"
        }
      ],
      "stateMutability": "view",
      "type": "function"
    },
    {
      "inputs": [],
      "name": "quorumDenominator",
      "outputs": [
        {
          "internalType": "uint256",
          "name": "",
          "type": "uint256"
        }
      ],
      "stateMutability": "view",
      "type": "function"
    },
    {
      "inputs": [
        {
          "internalType": "uint256",
          "name": "timepoint",
          "type": "uint256"
        }
      ],
      "name": "quorumNumerator",
      "outputs": [
        {
          "internalType": "uint256",
          "name": "",
          "type": "uint256"
        }
      ],
      "stateMutability": "view",
      "type": "function"
    },
    {
      "inputs": [],
      "name": "quorumNumerator",
      "outputs": [
        {
          "internalType": "uint256",
          "name": "",
          "type": "uint256"
        }
      ],
      "stateMutability": "view",
      "type": "function"
    },
    {
      "inputs": [
        {
          "internalType": "address",
          "name": "target",
          "type": "address"
        },
        {
          "internalType": "uint256",
          "name": "value",
          "type": "uint256"
        },
        {
          "internalType": "bytes",
          "name": "data",
          "type": "bytes"
        }
      ],
      "name": "relay",
      "outputs": [],
      "stateMutability": "payable",
      "type": "function"
    },
    {
      "inputs": [
        {
          "internalType": "uint256",
          "name": "proposalId",
          "type": "uint256"
        }
      ],
      "name": "state",
      "outputs": [
        {
          "internalType": "enum IGovernor.ProposalState",
          "name": "",
          "type": "uint8"
        }
      ],
      "stateMutability": "view",
      "type": "function"
    },
    {
      "inputs": [
        {
          "internalType": "bytes4",
          "name": "interfaceId",
          "type": "bytes4"
        }
      ],
      "name": "supportsInterface",
      "outputs": [
        {
          "internalType": "bool",
          "name": "",
          "type": "bool"
        }
      ],
      "stateMutability": "view",
      "type": "function"
    },
    {
      "inputs": [],
      "name": "timelock",
      "outputs": [
        {
          "internalType": "address",
          "name": "",
          "type": "address"
        }
      ],
      "stateMutability": "view",
      "type": "function"
    },
    {
      "inputs": [],
      "name": "token",
      "outputs": [
        {
          "internalType": "contract IERC5805",
          "name": "",
          "type": "address"
        }
      ],
      "stateMutability": "view",
      "type": "function"
    },
    {
      "inputs": [
        {
          "internalType": "uint256",
          "name": "newQuorumNumerator",
          "type": "uint256"
        }
      ],
      "name": "updateQuorumNumerator",
      "outputs": [],
      "stateMutability": "nonpayable",
      "type": "function"
    },
    {
      "inputs": [
        {
          "internalType": "contract TimelockController",
          "name": "newTimelock",
          "type": "address"
        }
      ],
      "name": "updateTimelock",
      "outputs": [],
      "stateMutability": "nonpayable",
      "type": "function"
    },
    {
      "inputs": [],
      "name": "version",
      "outputs": [
        {
          "internalType": "string",
          "name": "",
          "type": "string"
        }
      ],
      "stateMutability": "view",
      "type": "function"
    },
    {
      "inputs": [],
      "name": "votingDelay",
      "outputs": [
        {
          "internalType": "uint256",
          "name": "",
          "type": "uint256"
        }
      ],
      "stateMutability": "pure",
      "type": "function"
    },
    {
      "inputs": [],
      "name": "votingPeriod",
      "outputs": [
        {
          "internalType": "uint256",
          "name": "",
          "type": "uint256"
        }
      ],
      "stateMutability": "pure",
      "type": "function"
    },
    {
      "stateMutability": "payable",
      "type": "receive"
    }
  ],
  "bytecode": "0x61018060405234801561001157600080fd5b50604051617d06380380617d0683398181016040528101906100339190610aa4565b806004836040518060400160405280600a81526020017f4d79476f7665726e6f72000000000000000000000000000000000000000000008152508061007c61019460201b60201c565b6100906000836101d160201b90919060201c565b61012081815250506100ac6001826101d160201b90919060201c565b6101408181525050818051906020012060e08181525050808051906020012061010081815250504660a081815250506100e961022160201b60201c565b608081815250503073ffffffffffffffffffffffffffffffffffffffff1660c08173ffffffffffffffffffffffffffffffffffffffff1681525050505080600390816101359190610d34565b50508073ffffffffffffffffffffffffffffffffffffffff166101608173ffffffffffffffffffffffffffffffffffffffff16815250505061017c8161027c60201b60201c565b5061018c8161035860201b60201c565b5050506111c3565b60606040518060400160405280600181526020017f3100000000000000000000000000000000000000000000000000000000000000815250905090565b60006020835110156101f3576101ec836103f760201b60201c565b905061021b565b826102038361045f60201b60201c565b60000190816102129190610d34565b5060ff60001b90505b92915050565b60007f8b73c3c69bb8fe3d512ecc4cf759cc79239f7b179b0ffacaa9a75d522b39400f60e051610100514630604051602001610261959493929190610e3d565b60405160208183030381529060405280519060200120905090565b600061028c61046960201b60201c565b9050808211156102d55781816040517f243e54450000000000000000000000000000000000000000000000000000000081526004016102cc929190610e90565b60405180910390fd5b60006102e561047260201b60201c565b90506103186102f86104a560201b60201c565b6103078561053d60201b60201c565b60086105ab60201b9092919060201c565b50507f0553476bf02ef2726e8ce5ced78d63e26e602e4a2257b1f559418e24b4633997818460405161034b929190610e90565b60405180910390a1505050565b7f08f74ea46ef7894f65eabfb5e6e695de773a000b47c529ab559178069b226401600960009054906101000a900473ffffffffffffffffffffffffffffffffffffffff16826040516103ab929190610eb9565b60405180910390a180600960006101000a81548173ffffffffffffffffffffffffffffffffffffffff021916908373ffffffffffffffffffffffffffffffffffffffff16021790555050565b600080829050601f8151111561044457826040517f305a27a900000000000000000000000000000000000000000000000000000000815260040161043b9190610f67565b60405180910390fd5b80518161045090610fb9565b60001c1760001b915050919050565b6000819050919050565b60006064905090565b600061048460086105ce60201b60201c565b79ffffffffffffffffffffffffffffffffffffffffffffffffffff16905090565b60006104b561063c60201b60201c565b73ffffffffffffffffffffffffffffffffffffffff166391ddadf46040518163ffffffff1660e01b8152600401602060405180830381865afa92505050801561051c57506040513d601f19601f82011682018060405250810190610519919061105e565b60015b6105355761052e61064760201b60201c565b905061053a565b809150505b90565b600079ffffffffffffffffffffffffffffffffffffffffffffffffffff80168211156105a35760d0826040517f6dfcc65000000000000000000000000000000000000000000000000000000000815260040161059a9291906110d3565b60405180910390fd5b819050919050565b6000806105c285600001858561065d60201b60201c565b91509150935093915050565b600080826000018054905090506000811461063157610602836000016001836105f7919061112b565b61097060201b60201c565b60000160069054906101000a900479ffffffffffffffffffffffffffffffffffffffffffffffffffff16610634565b60005b915050919050565b600061016051905090565b60006106584361098560201b60201c565b905090565b600080600085805490509050600081111561088057600061069087600184610685919061112b565b61097060201b60201c565b905060008160000160009054906101000a900465ffffffffffff16905060008260000160069054906101000a900479ffffffffffffffffffffffffffffffffffffffffffffffffffff1690508765ffffffffffff168265ffffffffffff161115610726576040517f2520601d00000000000000000000000000000000000000000000000000000000815260040160405180910390fd5b8765ffffffffffff168265ffffffffffff160361079157868360000160066101000a81548179ffffffffffffffffffffffffffffffffffffffffffffffffffff021916908379ffffffffffffffffffffffffffffffffffffffffffffffffffff160217905550610871565b8860405180604001604052808a65ffffffffffff1681526020018979ffffffffffffffffffffffffffffffffffffffffffffffffffff168152509080600181540180825580915050600190039060005260206000200160009091909190915060008201518160000160006101000a81548165ffffffffffff021916908365ffffffffffff16021790555060208201518160000160066101000a81548179ffffffffffffffffffffffffffffffffffffffffffffffffffff021916908379ffffffffffffffffffffffffffffffffffffffffffffffffffff16021790555050505b80879550955050505050610968565b8560405180604001604052808765ffffffffffff1681526020018679ffffffffffffffffffffffffffffffffffffffffffffffffffff168152509080600181540180825580915050600190039060005260206000200160009091909190915060008201518160000160006101000a81548165ffffffffffff021916908365ffffffffffff16021790555060208201518160000160066101000a81548179ffffffffffffffffffffffffffffffffffffffffffffffffffff021916908379ffffffffffffffffffffffffffffffffffffffffffffffffffff160217905550505060008492509250505b935093915050565b60008260005281602060002001905092915050565b600065ffffffffffff80168211156109d7576030826040517f6dfcc6500000000000000000000000000000000000000000000000000000000081526004016109ce92919061119a565b60405180910390fd5b819050919050565b600080fd5b600073ffffffffffffffffffffffffffffffffffffffff82169050919050565b6000610a0f826109e4565b9050919050565b6000610a2182610a04565b9050919050565b610a3181610a16565b8114610a3c57600080fd5b50565b600081519050610a4e81610a28565b92915050565b6000610a5f826109e4565b9050919050565b6000610a7182610a54565b9050919050565b610a8181610a66565b8114610a8c57600080fd5b50565b600081519050610a9e81610a78565b92915050565b60008060408385031215610abb57610aba6109df565b5b6000610ac985828601610a3f565b9250506020610ada85828601610a8f565b9150509250929050565b600081519050919050565b7f4e487b7100000000000000000000000000000000000000000000000000000000600052604160045260246000fd5b7f4e487b7100000000000000000000000000000000000000000000000000000000600052602260045260246000fd5b60006002820490506001821680610b6557607f821691505b602082108103610b7857610b77610b1e565b5b50919050565b60008190508160005260206000209050919050565b60006020601f8301049050919050565b600082821b905092915050565b600060088302610be07fffffffffffffffffffffffffffffffffffffffffffffffffffffffffffffffff82610ba3565b610bea8683610ba3565b95508019841693508086168417925050509392505050565b6000819050919050565b6000819050919050565b6000610c31610c2c610c2784610c02565b610c0c565b610c02565b9050919050565b6000819050919050565b610c4b83610c16565b610c5f610c5782610c38565b848454610bb0565b825550505050565b600090565b610c74610c67565b610c7f818484610c42565b505050565b5b81811015610ca357610c98600082610c6c565b600181019050610c85565b5050565b601f821115610ce857610cb981610b7e565b610cc284610b93565b81016020851015610cd1578190505b610ce5610cdd85610b93565b830182610c84565b50505b505050565b600082821c905092915050565b6000610d0b60001984600802610ced565b1980831691505092915050565b6000610d248383610cfa565b9150826002028217905092915050565b610d3d82610ae4565b67ffffffffffffffff811115610d5657610d55610aef565b5b610d608254610b4d565b610d6b828285610ca7565b600060209050601f831160018114610d9e5760008415610d8c578287015190505b610d968582610d18565b865550610dfe565b601f198416610dac86610b7e565b60005b82811015610dd457848901518255600182019150602085019450602081019050610daf565b86831015610df15784890151610ded601f891682610cfa565b8355505b6001600288020188555050505b505050505050565b6000819050919050565b610e1981610e06565b82525050565b610e2881610c02565b82525050565b610e3781610a04565b82525050565b600060a082019050610e526000830188610e10565b610e5f6020830187610e10565b610e6c6040830186610e10565b610e796060830185610e1f565b610e866080830184610e2e565b9695505050505050565b6000604082019050610ea56000830185610e1f565b610eb26020830184610e1f565b9392505050565b6000604082019050610ece6000830185610e2e565b610edb6020830184610e2e565b9392505050565b600082825260208201905092915050565b60005b83811015610f11578082015181840152602081019050610ef6565b60008484015250505050565b6000601f19601f8301169050919050565b6000610f3982610ae4565b610f438185610ee2565b9350610f53818560208601610ef3565b610f5c81610f1d565b840191505092915050565b60006020820190508181036000830152610f818184610f2e565b905092915050565b600081519050919050565b6000819050602082019050919050565b6000610fb08251610e06565b80915050919050565b6000610fc482610f89565b82610fce84610f94565b9050610fd981610fa4565b92506020821015611019576110147fffffffffffffffffffffffffffffffffffffffffffffffffffffffffffffffff83602003600802610ba3565b831692505b5050919050565b600065ffffffffffff82169050919050565b61103b81611020565b811461104657600080fd5b50565b60008151905061105881611032565b92915050565b600060208284031215611074576110736109df565b5b600061108284828501611049565b91505092915050565b6000819050919050565b600060ff82169050919050565b60006110bd6110b86110b38461108b565b610c0c565b611095565b9050919050565b6110cd816110a2565b82525050565b60006040820190506110e860008301856110c4565b6110f56020830184610e1f565b9392505050565b7f4e487b7100000000000000000000000000000000000000000000000000000000600052601160045260246000fd5b600061113682610c02565b915061114183610c02565b9250828203905081811115611159576111586110fc565b5b92915050565b6000819050919050565b600061118461117f61117a8461115f565b610c0c565b611095565b9050919050565b61119481611169565b82525050565b60006040820190506111af600083018561118b565b6111bc6020830184610e1f565b9392505050565b60805160a05160c05160e05161010051610120516101405161016051616ade6112286000396000611f2e01526000612de801526000612dad0152600061445d0152600061443c0152600061370a01526000613760015260006137890152616ade6000f3fe6080604052600436106102765760003560e01c80637d5e81e21161014f578063b58131b0116100c1578063dd4e2ba51161007a578063dd4e2ba514610b13578063deaaa7cc14610b3e578063eb9019d414610b69578063f23a6e6114610ba6578063f8ce560a14610be3578063fc0c546a14610c20576102e9565b8063b58131b0146109ea578063bc197c8114610a15578063c01f9e3714610a52578063c28bc2fa14610a8f578063c59057e414610aab578063d33219b414610ae8576102e9565b806397c3d3341161011357806397c3d334146108b45780639a802a6d146108df578063a7713a701461091c578063a890c91014610947578063a9a9529414610970578063ab58fb8e146109ad576102e9565b80637d5e81e2146107a15780637ecebe00146107de57806384b0196e1461081b5780638ff262e31461084c57806391ddadf414610889576102e9565b80633e4f49e6116101e857806354fd4d50116101ac57806354fd4d501461064557806356781388146106705780635b8d0e0d146106ad5780635f398a14146106ea57806360c4247f146107275780637b3c71d314610764576102e9565b80633e4f49e6146105245780634385963214610561578063452115d61461059e5780634bf5d7e9146105db578063544ffc9c14610606576102e9565b8063150b7a021161023a578063150b7a02146103e7578063160cbed7146104245780632656227d146104615780632d63f693146104915780632fe3e261146104ce5780633932abb1146104f9576102e9565b806301ffc9a7146102ee57806302a251a31461032b57806306f3f9e61461035657806306fdde031461037f578063143489d0146103aa576102e9565b366102e9573073ffffffffffffffffffffffffffffffffffffffff1661029a610c4b565b73ffffffffffffffffffffffffffffffffffffffff16146102e7576040517fe90a651e00000000000000000000000000000000000000000000000000000000815260040160405180910390fd5b005b600080fd5b3480156102fa57600080fd5b5061031560048036038101906103109190614703565b610c5a565b604051610322919061474b565b60405180910390f35b34801561033757600080fd5b50610340610d3c565b60405161034d919061477f565b60405180910390f35b34801561036257600080fd5b5061037d600480360381019061037891906147c6565b610d45565b005b34801561038b57600080fd5b50610394610d59565b6040516103a19190614883565b60405180910390f35b3480156103b657600080fd5b506103d160048036038101906103cc91906147c6565b610deb565b6040516103de91906148e6565b60405180910390f35b3480156103f357600080fd5b5061040e60048036038101906104099190614a62565b610e2b565b60405161041b9190614af4565b60405180910390f35b34801561043057600080fd5b5061044b60048036038101906104469190614db1565b610eab565b604051610458919061477f565b60405180910390f35b61047b60048036038101906104769190614db1565b610fa7565b604051610488919061477f565b60405180910390f35b34801561049d57600080fd5b506104b860048036038101906104b391906147c6565b611186565b6040516104c5919061477f565b60405180910390f35b3480156104da57600080fd5b506104e36111c0565b6040516104f09190614e7b565b60405180910390f35b34801561050557600080fd5b5061050e6111e4565b60405161051b919061477f565b60405180910390f35b34801561053057600080fd5b5061054b600480360381019061054691906147c6565b6111ed565b6040516105589190614f0d565b60405180910390f35b34801561056d57600080fd5b5061058860048036038101906105839190614f28565b6111ff565b604051610595919061474b565b60405180910390f35b3480156105aa57600080fd5b506105c560048036038101906105c09190614db1565b61126a565b6040516105d2919061477f565b60405180910390f35b3480156105e757600080fd5b506105f061132c565b6040516105fd9190614883565b60405180910390f35b34801561061257600080fd5b5061062d600480360381019061062891906147c6565b6113eb565b60405161063c93929190614f68565b60405180910390f35b34801561065157600080fd5b5061065a611423565b6040516106679190614883565b60405180910390f35b34801561067c57600080fd5b5061069760048036038101906106929190614fd8565b611460565b6040516106a4919061477f565b60405180910390f35b3480156106b957600080fd5b506106d460048036038101906106cf9190615073565b611491565b6040516106e1919061477f565b60405180910390f35b3480156106f657600080fd5b50610711600480360381019061070c919061515a565b6115c2565b60405161071e919061477f565b60405180910390f35b34801561073357600080fd5b5061074e600480360381019061074991906147c6565b61162c565b60405161075b919061477f565b60405180910390f35b34801561077057600080fd5b5061078b600480360381019061078691906151fe565b611730565b604051610798919061477f565b60405180910390f35b3480156107ad57600080fd5b506107c860048036038101906107c39190615313565b611798565b6040516107d5919061477f565b60405180910390f35b3480156107ea57600080fd5b50610805600480360381019061080091906153ea565b611892565b604051610812919061477f565b60405180910390f35b34801561082757600080fd5b506108306118db565b6040516108439796959493929190615510565b60405180910390f35b34801561085857600080fd5b50610873600480360381019061086e9190615594565b611985565b604051610880919061477f565b60405180910390f35b34801561089557600080fd5b5061089e611a5b565b6040516108ab9190615638565b60405180910390f35b3480156108c057600080fd5b506108c9611ae7565b6040516108d6919061477f565b60405180910390f35b3480156108eb57600080fd5b5061090660048036038101906109019190615653565b611af0565b604051610913919061477f565b60405180910390f35b34801561092857600080fd5b50610931611b06565b60405161093e919061477f565b60405180910390f35b34801561095357600080fd5b5061096e60048036038101906109699190615712565b611b33565b005b34801561097c57600080fd5b50610997600480360381019061099291906147c6565b611b47565b6040516109a4919061474b565b60405180910390f35b3480156109b957600080fd5b506109d460048036038101906109cf91906147c6565b611b59565b6040516109e1919061477f565b60405180910390f35b3480156109f657600080fd5b506109ff611b93565b604051610a0c919061477f565b60405180910390f35b348015610a2157600080fd5b50610a3c6004803603810190610a37919061573f565b611b98565b604051610a499190614af4565b60405180910390f35b348015610a5e57600080fd5b50610a796004803603810190610a7491906147c6565b611c19565b604051610a86919061477f565b60405180910390f35b610aa96004803603810190610aa49190615864565b611c8a565b005b348015610ab757600080fd5b50610ad26004803603810190610acd9190614db1565b611d17565b604051610adf919061477f565b60405180910390f35b348015610af457600080fd5b50610afd611d53565b604051610b0a91906148e6565b60405180910390f35b348015610b1f57600080fd5b50610b28611d7d565b604051610b359190614883565b60405180910390f35b348015610b4a57600080fd5b50610b53611dba565b604051610b609190614e7b565b60405180910390f35b348015610b7557600080fd5b50610b906004803603810190610b8b91906158d8565b611dde565b604051610b9d919061477f565b60405180910390f35b348015610bb257600080fd5b50610bcd6004803603810190610bc89190615918565b611dfa565b604051610bda9190614af4565b60405180910390f35b348015610bef57600080fd5b50610c0a6004803603810190610c0591906147c6565b611e7b565b604051610c17919061477f565b60405180910390f35b348015610c2c57600080fd5b50610c35611f2a565b604051610c429190615a0e565b60405180910390f35b6000610c55611f52565b905090565b60007f65455a86000000000000000000000000000000000000000000000000000000007bffffffffffffffffffffffffffffffffffffffffffffffffffffffff1916827bffffffffffffffffffffffffffffffffffffffffffffffffffffffff19161480610d2557507f4e2312e0000000000000000000000000000000000000000000000000000000007bffffffffffffffffffffffffffffffffffffffffffffffffffffffff1916827bffffffffffffffffffffffffffffffffffffffffffffffffffffffff1916145b80610d355750610d3482611f7c565b5b9050919050565b60006064905090565b610d4d611fe6565b610d56816120dc565b50565b606060038054610d6890615a58565b80601f0160208091040260200160405190810160405280929190818152602001828054610d9490615a58565b8015610de15780601f10610db657610100808354040283529160200191610de1565b820191906000526020600020905b815481529060010190602001808311610dc457829003601f168201915b5050505050905090565b60006004600083815260200190815260200160002060000160009054906101000a900473ffffffffffffffffffffffffffffffffffffffff169050919050565b60003073ffffffffffffffffffffffffffffffffffffffff16610e4c610c4b565b73ffffffffffffffffffffffffffffffffffffffff1614610e99576040517fe90a651e00000000000000000000000000000000000000000000000000000000815260040160405180910390fd5b63150b7a0260e01b9050949350505050565b600080610eba86868686611d17565b9050610ecf81610eca60046121a0565b6121c6565b506000610edf8288888888612233565b905060008165ffffffffffff1614610f6857806004600084815260200190815260200160002060010160006101000a81548165ffffffffffff021916908365ffffffffffff1602179055507f9a2e42fd6722813d69113e7d0079d3d940171428df7373df9c7f7617cfda28928282604051610f5b929190615aba565b60405180910390a1610f9a565b6040517f90884a4600000000000000000000000000000000000000000000000000000000815260040160405180910390fd5b8192505050949350505050565b600080610fb686868686611d17565b9050610fd681610fc660056121a0565b610fd060046121a0565b176121c6565b50600160046000838152602001908152602001600020600001601e6101000a81548160ff0219169083151502179055503073ffffffffffffffffffffffffffffffffffffffff16611025610c4b565b73ffffffffffffffffffffffffffffffffffffffff16146110dc5760005b86518110156110da573073ffffffffffffffffffffffffffffffffffffffff1687828151811061107657611075615ae3565b5b602002602001015173ffffffffffffffffffffffffffffffffffffffff16036110cf576110ce8582815181106110af576110ae615ae3565b5b602002602001015180519060200120600561224d90919063ffffffff16565b5b806001019050611043565b505b6110e9818787878761234c565b3073ffffffffffffffffffffffffffffffffffffffff16611108610c4b565b73ffffffffffffffffffffffffffffffffffffffff161415801561113357506111316005612360565b155b156111435761114260056123d0565b5b7f712ae1383f79ac853f8d882153778e0260ef8f03b504e2866e0593e04d2b291f81604051611172919061477f565b60405180910390a180915050949350505050565b60006004600083815260200190815260200160002060000160149054906101000a900465ffffffffffff1665ffffffffffff169050919050565b7f3e83946653575f9a39005e1545185629e92736b7528ab20ca3816f315424a81181565b60006064905090565b60006111f88261244b565b9050919050565b60006007600084815260200190815260200160002060030160008373ffffffffffffffffffffffffffffffffffffffff1673ffffffffffffffffffffffffffffffffffffffff16815260200190815260200160002060009054906101000a900460ff16905092915050565b60008061127986868686611d17565b905061128e8161128960006121a0565b6121c6565b5061129881610deb565b73ffffffffffffffffffffffffffffffffffffffff166112b661260a565b73ffffffffffffffffffffffffffffffffffffffff1614611315576112d961260a565b6040517f233d98e300000000000000000000000000000000000000000000000000000000815260040161130c91906148e6565b60405180910390fd5b61132186868686612612565b915050949350505050565b6060611336611f2a565b73ffffffffffffffffffffffffffffffffffffffff16634bf5d7e96040518163ffffffff1660e01b8152600401600060405180830381865afa9250505080156113a257506040513d6000823e3d601f19601f8201168201806040525081019061139f9190615b82565b60015b6113e3576040518060400160405280601d81526020017f6d6f64653d626c6f636b6e756d6265722666726f6d3d64656661756c7400000081525090506113e8565b809150505b90565b600080600080600760008681526020019081526020016000209050806000015481600101548260020154935093509350509193909250565b60606040518060400160405280600181526020017f3100000000000000000000000000000000000000000000000000000000000000815250905090565b60008061146b61260a565b90506114888482856040518060200160405280600081525061262a565b91505092915050565b60008061151f876115197f3e83946653575f9a39005e1545185629e92736b7528ab20ca3816f315424a8118c8c8c6114c88e61264a565b8d8d6040516114d8929190615bfb565b60405180910390208c805190602001206040516020016114fe9796959493929190615c23565b604051602081830303815290604052805190602001206126a1565b856126bb565b90508061156357866040517f94ab6c0700000000000000000000000000000000000000000000000000000000815260040161155a91906148e6565b60405180910390fd5b6115b489888a89898080601f016020809104026020016040519081016040528093929190818152602001838380828437600081840152601f19601f820116905080830192505050505050508861276a565b915050979650505050505050565b6000806115cd61260a565b905061162087828888888080601f016020809104026020016040519081016040528093929190818152602001838380828437600081840152601f19601f820116905080830192505050505050508761276a565b91505095945050505050565b60008060086000018054905090506000600860000160018361164e9190615cc1565b8154811061165f5761165e615ae3565b5b90600052602060002001905060008160000160009054906101000a900465ffffffffffff16905060008260000160069054906101000a900479ffffffffffffffffffffffffffffffffffffffffffffffffffff169050858265ffffffffffff16116116ec578079ffffffffffffffffffffffffffffffffffffffffffffffffffff1694505050505061172b565b6117086116f88761286f565b60086128c990919063ffffffff16565b79ffffffffffffffffffffffffffffffffffffffffffffffffffff169450505050505b919050565b60008061173b61260a565b905061178d86828787878080601f016020809104026020016040519081016040528093929190818152602001838380828437600081840152601f19601f8201169050808301925050505050505061262a565b915050949350505050565b6000806117a361260a565b90506117af81846129c3565b6117f057806040517fd9b395570000000000000000000000000000000000000000000000000000000081526004016117e791906148e6565b60405180910390fd5b60006117fa611b93565b9050600081111561187957600061182c836001611815611a5b565b61181f9190615cf5565b65ffffffffffff16611dde565b905081811015611877578281836040517fc242ee1600000000000000000000000000000000000000000000000000000000815260040161186e93929190615d2f565b60405180910390fd5b505b6118868787878786612b0f565b92505050949350505050565b6000600260008373ffffffffffffffffffffffffffffffffffffffff1673ffffffffffffffffffffffffffffffffffffffff168152602001908152602001600020549050919050565b6000606080600080600060606118ef612da4565b6118f7612ddf565b46306000801b600067ffffffffffffffff81111561191857611917614937565b5b6040519080825280602002602001820160405280156119465781602001602082028036833780820191505090505b507f0f00000000000000000000000000000000000000000000000000000000000000959493929190965096509650965096509650965090919293949596565b6000806119f1846119eb7ff2aad550cf55f045cb27e9c559f9889fdfb6e6cdaa032301d6ea397784ae51d78989896119bc8b61264a565b6040516020016119d0959493929190615d66565b604051602081830303815290604052805190602001206126a1565b856126bb565b905080611a3557836040517f94ab6c07000000000000000000000000000000000000000000000000000000008152600401611a2c91906148e6565b60405180910390fd5b611a508685876040518060200160405280600081525061262a565b915050949350505050565b6000611a65611f2a565b73ffffffffffffffffffffffffffffffffffffffff166391ddadf46040518163ffffffff1660e01b8152600401602060405180830381865afa925050508015611acc57506040513d601f19601f82011682018060405250810190611ac99190615de5565b60015b611adf57611ad8612e1a565b9050611ae4565b809150505b90565b60006064905090565b6000611afd848484612e2a565b90509392505050565b6000611b126008612eb8565b79ffffffffffffffffffffffffffffffffffffffffffffffffffff16905090565b611b3b611fe6565b611b4481612f20565b50565b6000611b5282612fbf565b9050919050565b60006004600083815260200190815260200160002060010160009054906101000a900465ffffffffffff1665ffffffffffff169050919050565b600090565b60003073ffffffffffffffffffffffffffffffffffffffff16611bb9610c4b565b73ffffffffffffffffffffffffffffffffffffffff1614611c06576040517fe90a651e00000000000000000000000000000000000000000000000000000000815260040160405180910390fd5b63bc197c8160e01b905095945050505050565b600060046000838152602001908152602001600020600001601a9054906101000a900463ffffffff1663ffffffff166004600084815260200190815260200160002060000160149054906101000a900465ffffffffffff16611c7b9190615e12565b65ffffffffffff169050919050565b611c92611fe6565b6000808573ffffffffffffffffffffffffffffffffffffffff16858585604051611cbd929190615bfb565b60006040518083038185875af1925050503d8060008114611cfa576040519150601f19603f3d011682016040523d82523d6000602084013e611cff565b606091505b5091509150611d0e8282612fca565b50505050505050565b600084848484604051602001611d309493929190616021565b6040516020818303038152906040528051906020012060001c9050949350505050565b6000600960009054906101000a900473ffffffffffffffffffffffffffffffffffffffff16905090565b60606040518060400160405280602081526020017f737570706f72743d627261766f2671756f72756d3d666f722c6162737461696e815250905090565b7ff2aad550cf55f045cb27e9c559f9889fdfb6e6cdaa032301d6ea397784ae51d781565b6000611df28383611ded612fee565b612e2a565b905092915050565b60003073ffffffffffffffffffffffffffffffffffffffff16611e1b610c4b565b73ffffffffffffffffffffffffffffffffffffffff1614611e68576040517fe90a651e00000000000000000000000000000000000000000000000000000000815260040160405180910390fd5b63f23a6e6160e01b905095945050505050565b6000611e85611ae7565b611e8e8361162c565b611e96611f2a565b73ffffffffffffffffffffffffffffffffffffffff16638e539e8c856040518263ffffffff1660e01b8152600401611ece919061477f565b602060405180830381865afa158015611eeb573d6000803e3d6000fd5b505050506040513d601f19601f82011682018060405250810190611f0f9190616090565b611f1991906160bd565b611f23919061612e565b9050919050565b60007f0000000000000000000000000000000000000000000000000000000000000000905090565b6000600960009054906101000a900473ffffffffffffffffffffffffffffffffffffffff16905090565b60007f01ffc9a7000000000000000000000000000000000000000000000000000000007bffffffffffffffffffffffffffffffffffffffffffffffffffffffff1916827bffffffffffffffffffffffffffffffffffffffffffffffffffffffff1916149050919050565b611fee61260a565b73ffffffffffffffffffffffffffffffffffffffff1661200c610c4b565b73ffffffffffffffffffffffffffffffffffffffff161461206b5761202f61260a565b6040517f47096e4700000000000000000000000000000000000000000000000000000000815260040161206291906148e6565b60405180910390fd5b3073ffffffffffffffffffffffffffffffffffffffff1661208a610c4b565b73ffffffffffffffffffffffffffffffffffffffff16146120da5760006120af613005565b6040516120bd929190615bfb565b604051809103902090505b806120d36005613012565b036120c857505b565b60006120e6611ae7565b90508082111561212f5781816040517f243e544500000000000000000000000000000000000000000000000000000000815260040161212692919061615f565b60405180910390fd5b6000612139611b06565b9050612160612146611a5b565b61214f8561314b565b60086131b99092919063ffffffff16565b50507f0553476bf02ef2726e8ce5ced78d63e26e602e4a2257b1f559418e24b4633997818460405161219392919061615f565b60405180910390a1505050565b60008160078111156121b5576121b4614e96565b5b60ff166001901b60001b9050919050565b6000806121d2846111ed565b90506000801b836121e2836121a0565b1603612229578381846040517f31b75e4d00000000000000000000000000000000000000000000000000000000815260040161222093929190616188565b60405180910390fd5b8091505092915050565b600061224286868686866131d6565b905095945050505050565b60008260000160109054906101000a90046fffffffffffffffffffffffffffffffff1690508260000160009054906101000a90046fffffffffffffffffffffffffffffffff166fffffffffffffffffffffffffffffffff16600182016fffffffffffffffffffffffffffffffff16036122cb576122ca60416133ee565b5b81836001016000836fffffffffffffffffffffffffffffffff166fffffffffffffffffffffffffffffffff16815260200190815260200160002081905550600181018360000160106101000a8154816fffffffffffffffffffffffffffffffff02191690836fffffffffffffffffffffffffffffffff160217905550505050565b6123598585858585613400565b5050505050565b60008160000160009054906101000a90046fffffffffffffffffffffffffffffffff166fffffffffffffffffffffffffffffffff168260000160109054906101000a90046fffffffffffffffffffffffffffffffff166fffffffffffffffffffffffffffffffff16149050919050565b60008160000160006101000a8154816fffffffffffffffffffffffffffffffff02191690836fffffffffffffffffffffffffffffffff16021790555060008160000160106101000a8154816fffffffffffffffffffffffffffffffff02191690836fffffffffffffffffffffffffffffffff16021790555050565b600080612457836134bd565b90506005600781111561246d5761246c614e96565b5b8160078111156124805761247f614e96565b5b1461248e5780915050612605565b6000600a6000858152602001908152602001600020549050600960009054906101000a900473ffffffffffffffffffffffffffffffffffffffff1673ffffffffffffffffffffffffffffffffffffffff1663584b153e826040518263ffffffff1660e01b81526004016125019190614e7b565b602060405180830381865afa15801561251e573d6000803e3d6000fd5b505050506040513d601f19601f8201168201806040525081019061254291906161eb565b1561255257600592505050612605565b600960009054906101000a900473ffffffffffffffffffffffffffffffffffffffff1673ffffffffffffffffffffffffffffffffffffffff16632ab0f529826040518263ffffffff1660e01b81526004016125ad9190614e7b565b602060405180830381865afa1580156125ca573d6000803e3d6000fd5b505050506040513d601f19601f820116820180604052508101906125ee91906161eb565b156125fe57600792505050612605565b6002925050505b919050565b600033905090565b600061262085858585613621565b9050949350505050565b60006126408585858561263b612fee565b61276a565b9050949350505050565b6000600260008373ffffffffffffffffffffffffffffffffffffffff1673ffffffffffffffffffffffffffffffffffffffff1681526020019081526020016000206000815480929190600101919050559050919050565b60006126b46126ae613706565b836137bd565b9050919050565b6000808473ffffffffffffffffffffffffffffffffffffffff163b03612755576000806126e885856137fe565b50915091506000600381111561270157612700614e96565b5b81600381111561271457612713614e96565b5b14801561274c57508573ffffffffffffffffffffffffffffffffffffffff168273ffffffffffffffffffffffffffffffffffffffff16145b92505050612763565b61276084848461385a565b90505b9392505050565b600061277f8661277a60016121a0565b6121c6565b5060006127958661278f89611186565b85612e2a565b905060006127a6888888858861397e565b9050600084510361280a578673ffffffffffffffffffffffffffffffffffffffff167fb8e138887d0aa13bab447e82de9d5c1777041ecd21ca36ba824ff1e6c07ddda4898884896040516127fd9493929190616218565b60405180910390a2612861565b8673ffffffffffffffffffffffffffffffffffffffff167fe2babfbac5889a709b63bb7f598b324e08bc5a4fb9ec647fb3cbc9ec07eb871289888489896040516128589594939291906162ae565b60405180910390a25b809250505095945050505050565b600065ffffffffffff80168211156128c1576030826040517f6dfcc6500000000000000000000000000000000000000000000000000000000081526004016128b892919061634a565b60405180910390fd5b819050919050565b6000808360000180549050905060008082905060058311156129515760006128f084613b81565b846128fb9190615cc1565b905061290a8760000182613d1e565b60000160009054906101000a900465ffffffffffff1665ffffffffffff168665ffffffffffff16101561293f5780915061294f565b60018161294c9190616373565b92505b505b600061296287600001878585613d33565b9050600081146129b457612985876000016001836129809190615cc1565b613d1e565b60000160069054906101000a900479ffffffffffffffffffffffffffffffffffffffffffffffffffff166129b7565b60005b94505050505092915050565b6000808251905060348110156129dd576001915050612b09565b60006014820384015190507f2370726f706f7365723d3078000000000000000000000000000000000000000073ffffffffffffffffffffffffffffffffffffffff19168173ffffffffffffffffffffffffffffffffffffffff191614612a4857600192505050612b09565b600080602884612a589190615cc1565b90505b83811015612ad357600080612a8c888481518110612a7c57612a7b615ae3565b5b602001015160f81c60f81b613dac565b9150915081612aa45760019650505050505050612b09565b8060ff1660048573ffffffffffffffffffffffffffffffffffffffff16901b1793505050806001019050612a5b565b508573ffffffffffffffffffffffffffffffffffffffff168173ffffffffffffffffffffffffffffffffffffffff161493505050505b92915050565b6000612b248686868680519060200120611d17565b905084518651141580612b3957508351865114155b80612b45575060008651145b15612b8e578551845186516040517f447b05d0000000000000000000000000000000000000000000000000000000008152600401612b8593929190614f68565b60405180910390fd5b60006004600083815260200190815260200160002060000160149054906101000a900465ffffffffffff1665ffffffffffff1614612c125780612bd0826111ed565b6000801b6040517f31b75e4d000000000000000000000000000000000000000000000000000000008152600401612c0993929190616188565b60405180910390fd5b6000612c1c6111e4565b612c24611a5b565b65ffffffffffff16612c369190616373565b90506000612c42610d3c565b90506000600460008581526020019081526020016000209050848160000160006101000a81548173ffffffffffffffffffffffffffffffffffffffff021916908373ffffffffffffffffffffffffffffffffffffffff160217905550612ca78361286f565b8160000160146101000a81548165ffffffffffff021916908365ffffffffffff160217905550612cd682613e46565b81600001601a6101000a81548163ffffffff021916908363ffffffff1602179055507f7d84a6263ae0d98d3329bd7b46bb4e8d6f98cd35a7adb45c274c8b7fd5ebd5e084868b8b8d5167ffffffffffffffff811115612d3857612d37614937565b5b604051908082528060200260200182016040528015612d6b57816020015b6060815260200190600190039081612d565790505b508c89898b612d7a9190616373565b8e604051612d90999897969594939291906164b3565b60405180910390a150505095945050505050565b6060612dda60007f0000000000000000000000000000000000000000000000000000000000000000613e9e90919063ffffffff16565b905090565b6060612e1560017f0000000000000000000000000000000000000000000000000000000000000000613e9e90919063ffffffff16565b905090565b6000612e254361286f565b905090565b6000612e34611f2a565b73ffffffffffffffffffffffffffffffffffffffff16633a46b1a885856040518363ffffffff1660e01b8152600401612e6e929190616563565b602060405180830381865afa158015612e8b573d6000803e3d6000fd5b505050506040513d601f19601f82011682018060405250810190612eaf9190616090565b90509392505050565b6000808260000180549050905060008114612f1557612ee683600001600183612ee19190615cc1565b613d1e565b60000160069054906101000a900479ffffffffffffffffffffffffffffffffffffffffffffffffffff16612f18565b60005b915050919050565b7f08f74ea46ef7894f65eabfb5e6e695de773a000b47c529ab559178069b226401600960009054906101000a900473ffffffffffffffffffffffffffffffffffffffff1682604051612f7392919061658c565b60405180910390a180600960006101000a81548173ffffffffffffffffffffffffffffffffffffffff021916908373ffffffffffffffffffffffffffffffffffffffff16021790555050565b600060019050919050565b606082612fdf57612fda82613f4e565b612fe7565b819050612fe8565b5b92915050565b606060405180602001604052806000815250905090565b3660008036915091509091565b6000808260000160009054906101000a90046fffffffffffffffffffffffffffffffff1690508260000160109054906101000a90046fffffffffffffffffffffffffffffffff166fffffffffffffffffffffffffffffffff16816fffffffffffffffffffffffffffffffff160361308e5761308d60316133ee565b5b826001016000826fffffffffffffffffffffffffffffffff166fffffffffffffffffffffffffffffffff168152602001908152602001600020549150826001016000826fffffffffffffffffffffffffffffffff166fffffffffffffffffffffffffffffffff16815260200190815260200160002060009055600181018360000160006101000a8154816fffffffffffffffffffffffffffffffff02191690836fffffffffffffffffffffffffffffffff16021790555050919050565b600079ffffffffffffffffffffffffffffffffffffffffffffffffffff80168211156131b15760d0826040517f6dfcc6500000000000000000000000000000000000000000000000000000000081526004016131a89291906165f0565b60405180910390fd5b819050919050565b6000806131ca856000018585613f93565b91509150935093915050565b600080600960009054906101000a900473ffffffffffffffffffffffffffffffffffffffff1673ffffffffffffffffffffffffffffffffffffffff1663f27a0c926040518163ffffffff1660e01b8152600401602060405180830381865afa158015613246573d6000803e3d6000fd5b505050506040513d601f19601f8201168201806040525081019061326a9190616090565b90506000613277846142a0565b9050600960009054906101000a900473ffffffffffffffffffffffffffffffffffffffff1673ffffffffffffffffffffffffffffffffffffffff1663b1c5f4278888886000866040518663ffffffff1660e01b81526004016132dd959493929190616661565b602060405180830381865afa1580156132fa573d6000803e3d6000fd5b505050506040513d601f19601f8201168201806040525081019061331e91906166de565b600a60008a815260200190815260200160002081905550600960009054906101000a900473ffffffffffffffffffffffffffffffffffffffff1673ffffffffffffffffffffffffffffffffffffffff16638f2a0bb0888888600086886040518763ffffffff1660e01b815260040161339b9695949392919061670b565b600060405180830381600087803b1580156133b557600080fd5b505af11580156133c9573d6000803e3d6000fd5b505050506133e182426133dc9190616373565b61286f565b9250505095945050505050565b634e487b71600052806020526024601cfd5b600960009054906101000a900473ffffffffffffffffffffffffffffffffffffffff1673ffffffffffffffffffffffffffffffffffffffff1663e38335e534868686600061344d886142a0565b6040518763ffffffff1660e01b815260040161346d959493929190616661565b6000604051808303818588803b15801561348657600080fd5b505af115801561349a573d6000803e3d6000fd5b5050505050600a6000868152602001908152602001600020600090555050505050565b600080600460008481526020019081526020016000209050600081600001601e9054906101000a900460ff169050600082600001601f9054906101000a900460ff1690508115613513576007935050505061361c565b8015613525576002935050505061361c565b600061353086611186565b90506000810361357757856040517f6ad0607500000000000000000000000000000000000000000000000000000000815260040161356e919061477f565b60405180910390fd5b6000613581611a5b565b65ffffffffffff1690508082106135a05760009550505050505061361c565b60006135ab88611c19565b90508181106135c3576001965050505050505061361c565b6135cc886142be565b15806135de57506135dc88614305565b155b156135f2576003965050505050505061361c565b60006135fd89611b59565b03613611576004965050505050505061361c565b600596505050505050505b919050565b60008061363086868686614330565b90506000600a60008381526020019081526020016000205490506000801b81146136f957600960009054906101000a900473ffffffffffffffffffffffffffffffffffffffff1673ffffffffffffffffffffffffffffffffffffffff1663c4d252f5826040518263ffffffff1660e01b81526004016136af9190614e7b565b600060405180830381600087803b1580156136c957600080fd5b505af11580156136dd573d6000803e3d6000fd5b50505050600a6000838152602001908152602001600020600090555b8192505050949350505050565b60007f000000000000000000000000000000000000000000000000000000000000000073ffffffffffffffffffffffffffffffffffffffff163073ffffffffffffffffffffffffffffffffffffffff1614801561378257507f000000000000000000000000000000000000000000000000000000000000000046145b156137af577f000000000000000000000000000000000000000000000000000000000000000090506137ba565b6137b7614417565b90505b90565b60006040517f190100000000000000000000000000000000000000000000000000000000000081528360028201528260228201526042812091505092915050565b600080600060418451036138435760008060006020870151925060408701519150606087015160001a9050613835888285856144ad565b955095509550505050613853565b60006002855160001b9250925092505b9250925092565b60008060008573ffffffffffffffffffffffffffffffffffffffff168585604051602401613889929190616781565b604051602081830303815290604052631626ba7e60e01b6020820180517bffffffffffffffffffffffffffffffffffffffffffffffffffffffff83818316178352505050506040516138db91906167e2565b600060405180830381855afa9150503d8060008114613916576040519150601f19603f3d011682016040523d82523d6000602084013e61391b565b606091505b509150915081801561392f57506020815110155b80156139735750631626ba7e60e01b7bffffffffffffffffffffffffffffffffffffffffffffffffffffffff19168180602001905181019061397191906166de565b145b925050509392505050565b6000806007600088815260200190815260200160002090508060030160008773ffffffffffffffffffffffffffffffffffffffff1673ffffffffffffffffffffffffffffffffffffffff16815260200190815260200160002060009054906101000a900460ff1615613a2757856040517f71c6af49000000000000000000000000000000000000000000000000000000008152600401613a1e91906148e6565b60405180910390fd5b60018160030160008873ffffffffffffffffffffffffffffffffffffffff1673ffffffffffffffffffffffffffffffffffffffff16815260200190815260200160002060006101000a81548160ff02191690831515021790555060006002811115613a9557613a94614e96565b5b60ff168560ff1603613ac15783816000016000828254613ab59190616373565b92505081905550613b74565b60016002811115613ad557613ad4614e96565b5b60ff168560ff1603613b015783816001016000828254613af59190616373565b92505081905550613b73565b600280811115613b1457613b13614e96565b5b60ff168560ff1603613b405783816002016000828254613b349190616373565b92505081905550613b72565b6040517f06b337c200000000000000000000000000000000000000000000000000000000815260040160405180910390fd5b5b5b8391505095945050505050565b600060018211613b9357819050613d19565b60008290506000600190507001000000000000000000000000000000008210613bc557608082901c9150604081901b90505b680100000000000000008210613be457604082901c9150602081901b90505b6401000000008210613bff57602082901c9150601081901b90505b620100008210613c1857601082901c9150600881901b90505b6101008210613c3057600882901c9150600481901b90505b60108210613c4757600482901c9150600281901b90505b60048210613c5757600181901b90505b600181600302901c90506001818581613c7357613c726160ff565b5b048201901c90506001818581613c8c57613c8b6160ff565b5b048201901c90506001818581613ca557613ca46160ff565b5b048201901c90506001818581613cbe57613cbd6160ff565b5b048201901c90506001818581613cd757613cd66160ff565b5b048201901c90506001818581613cf057613cef6160ff565b5b048201901c9050613d12818581613d0a57613d096160ff565b5b0482116145a1565b8103925050505b919050565b60008260005281602060002001905092915050565b60005b81831015613da1576000613d4a84846145ad565b90508465ffffffffffff16613d5f8783613d1e565b60000160009054906101000a900465ffffffffffff1665ffffffffffff161115613d8b57809250613d9b565b600181613d989190616373565b93505b50613d36565b819050949350505050565b60008060008360f81c90508060ff16602f108015613dcd5750603a8160ff16105b15613de2576001603082039250925050613e41565b8060ff166040108015613df8575060478160ff16105b15613e0d576001603782039250925050613e41565b8060ff166060108015613e23575060678160ff16105b15613e38576001605782039250925050613e41565b60008092509250505b915091565b600063ffffffff8016821115613e96576020826040517f6dfcc650000000000000000000000000000000000000000000000000000000008152600401613e8d929190616834565b60405180910390fd5b819050919050565b606060ff60001b8314613ebb57613eb4836145d3565b9050613f48565b818054613ec790615a58565b80601f0160208091040260200160405190810160405280929190818152602001828054613ef390615a58565b8015613f405780601f10613f1557610100808354040283529160200191613f40565b820191906000526020600020905b815481529060010190602001808311613f2357829003601f168201915b505050505090505b92915050565b600081511115613f615780518082602001fd5b6040517fd6bda27500000000000000000000000000000000000000000000000000000000815260040160405180910390fd5b60008060008580549050905060008111156141b0576000613fc087600184613fbb9190615cc1565b613d1e565b905060008160000160009054906101000a900465ffffffffffff16905060008260000160069054906101000a900479ffffffffffffffffffffffffffffffffffffffffffffffffffff1690508765ffffffffffff168265ffffffffffff161115614056576040517f2520601d00000000000000000000000000000000000000000000000000000000815260040160405180910390fd5b8765ffffffffffff168265ffffffffffff16036140c157868360000160066101000a81548179ffffffffffffffffffffffffffffffffffffffffffffffffffff021916908379ffffffffffffffffffffffffffffffffffffffffffffffffffff1602179055506141a1565b8860405180604001604052808a65ffffffffffff1681526020018979ffffffffffffffffffffffffffffffffffffffffffffffffffff168152509080600181540180825580915050600190039060005260206000200160009091909190915060008201518160000160006101000a81548165ffffffffffff021916908365ffffffffffff16021790555060208201518160000160066101000a81548179ffffffffffffffffffffffffffffffffffffffffffffffffffff021916908379ffffffffffffffffffffffffffffffffffffffffffffffffffff16021790555050505b80879550955050505050614298565b8560405180604001604052808765ffffffffffff1681526020018679ffffffffffffffffffffffffffffffffffffffffffffffffffff168152509080600181540180825580915050600190039060005260206000200160009091909190915060008201518160000160006101000a81548165ffffffffffff021916908365ffffffffffff16021790555060208201518160000160066101000a81548179ffffffffffffffffffffffffffffffffffffffffffffffffffff021916908379ffffffffffffffffffffffffffffffffffffffffffffffffffff160217905550505060008492509250505b935093915050565b6000813060601b6bffffffffffffffffffffffff1916189050919050565b600080600760008481526020019081526020016000209050806002015481600101546142ea9190616373565b6142fb6142f685611186565b611e7b565b1115915050919050565b6000806007600084815260200190815260200160002090508060000154816001015411915050919050565b60008061433f86868686611d17565b90506143a48161434f60076121a0565b61435960066121a0565b61436360026121a0565b60018060078081111561437957614378614e96565b5b614383919061685d565b600261438f91906169c5565b6143999190615cc1565b60001b1818186121c6565b50600160046000838152602001908152602001600020600001601f6101000a81548160ff0219169083151502179055507f789cf55be980739dad1d0699b93b58e806b51c9d96619bfa8fe0a28abaa7b30c81604051614403919061477f565b60405180910390a180915050949350505050565b60007f8b73c3c69bb8fe3d512ecc4cf759cc79239f7b179b0ffacaa9a75d522b39400f7f00000000000000000000000000000000000000000000000000000000000000007f00000000000000000000000000000000000000000000000000000000000000004630604051602001614492959493929190616a10565b60405160208183030381529060405280519060200120905090565b60008060007f7fffffffffffffffffffffffffffffff5d576e7357a4501ddfe92f46681b20a08460001c11156144ed576000600385925092509250614597565b6000600188888888604051600081526020016040526040516145129493929190616a63565b6020604051602081039080840390855afa158015614534573d6000803e3d6000fd5b505050602060405103519050600073ffffffffffffffffffffffffffffffffffffffff168173ffffffffffffffffffffffffffffffffffffffff160361458857600060016000801b93509350935050614597565b8060008060001b935093509350505b9450945094915050565b60008115159050919050565b600060028284186145be919061612e565b8284166145cb9190616373565b905092915050565b606060006145e083614647565b90506000602067ffffffffffffffff8111156145ff576145fe614937565b5b6040519080825280601f01601f1916602001820160405280156146315781602001600182028036833780820191505090505b5090508181528360208201528092505050919050565b60008060ff8360001c169050601f81111561468e576040517fb3512b0c00000000000000000000000000000000000000000000000000000000815260040160405180910390fd5b80915050919050565b6000604051905090565b600080fd5b600080fd5b60007fffffffff0000000000000000000000000000000000000000000000000000000082169050919050565b6146e0816146ab565b81146146eb57600080fd5b50565b6000813590506146fd816146d7565b92915050565b600060208284031215614719576147186146a1565b5b6000614727848285016146ee565b91505092915050565b60008115159050919050565b61474581614730565b82525050565b6000602082019050614760600083018461473c565b92915050565b6000819050919050565b61477981614766565b82525050565b60006020820190506147946000830184614770565b92915050565b6147a381614766565b81146147ae57600080fd5b50565b6000813590506147c08161479a565b92915050565b6000602082840312156147dc576147db6146a1565b5b60006147ea848285016147b1565b91505092915050565b600081519050919050565b600082825260208201905092915050565b60005b8381101561482d578082015181840152602081019050614812565b60008484015250505050565b6000601f19601f8301169050919050565b6000614855826147f3565b61485f81856147fe565b935061486f81856020860161480f565b61487881614839565b840191505092915050565b6000602082019050818103600083015261489d818461484a565b905092915050565b600073ffffffffffffffffffffffffffffffffffffffff82169050919050565b60006148d0826148a5565b9050919050565b6148e0816148c5565b82525050565b60006020820190506148fb60008301846148d7565b92915050565b61490a816148c5565b811461491557600080fd5b50565b60008135905061492781614901565b92915050565b600080fd5b600080fd5b7f4e487b7100000000000000000000000000000000000000000000000000000000600052604160045260246000fd5b61496f82614839565b810181811067ffffffffffffffff8211171561498e5761498d614937565b5b80604052505050565b60006149a1614697565b90506149ad8282614966565b919050565b600067ffffffffffffffff8211156149cd576149cc614937565b5b6149d682614839565b9050602081019050919050565b82818337600083830152505050565b6000614a05614a00846149b2565b614997565b905082815260208101848484011115614a2157614a20614932565b5b614a2c8482856149e3565b509392505050565b600082601f830112614a4957614a4861492d565b5b8135614a598482602086016149f2565b91505092915050565b60008060008060808587031215614a7c57614a7b6146a1565b5b6000614a8a87828801614918565b9450506020614a9b87828801614918565b9350506040614aac878288016147b1565b925050606085013567ffffffffffffffff811115614acd57614acc6146a6565b5b614ad987828801614a34565b91505092959194509250565b614aee816146ab565b82525050565b6000602082019050614b096000830184614ae5565b92915050565b600067ffffffffffffffff821115614b2a57614b29614937565b5b602082029050602081019050919050565b600080fd5b6000614b53614b4e84614b0f565b614997565b90508083825260208201905060208402830185811115614b7657614b75614b3b565b5b835b81811015614b9f5780614b8b8882614918565b845260208401935050602081019050614b78565b5050509392505050565b600082601f830112614bbe57614bbd61492d565b5b8135614bce848260208601614b40565b91505092915050565b600067ffffffffffffffff821115614bf257614bf1614937565b5b602082029050602081019050919050565b6000614c16614c1184614bd7565b614997565b90508083825260208201905060208402830185811115614c3957614c38614b3b565b5b835b81811015614c625780614c4e88826147b1565b845260208401935050602081019050614c3b565b5050509392505050565b600082601f830112614c8157614c8061492d565b5b8135614c91848260208601614c03565b91505092915050565b600067ffffffffffffffff821115614cb557614cb4614937565b5b602082029050602081019050919050565b6000614cd9614cd484614c9a565b614997565b90508083825260208201905060208402830185811115614cfc57614cfb614b3b565b5b835b81811015614d4357803567ffffffffffffffff811115614d2157614d2061492d565b5b808601614d2e8982614a34565b85526020850194505050602081019050614cfe565b5050509392505050565b600082601f830112614d6257614d6161492d565b5b8135614d72848260208601614cc6565b91505092915050565b6000819050919050565b614d8e81614d7b565b8114614d9957600080fd5b50565b600081359050614dab81614d85565b92915050565b60008060008060808587031215614dcb57614dca6146a1565b5b600085013567ffffffffffffffff811115614de957614de86146a6565b5b614df587828801614ba9565b945050602085013567ffffffffffffffff811115614e1657614e156146a6565b5b614e2287828801614c6c565b935050604085013567ffffffffffffffff811115614e4357614e426146a6565b5b614e4f87828801614d4d565b9250506060614e6087828801614d9c565b91505092959194509250565b614e7581614d7b565b82525050565b6000602082019050614e906000830184614e6c565b92915050565b7f4e487b7100000000000000000000000000000000000000000000000000000000600052602160045260246000fd5b60088110614ed657614ed5614e96565b5b50565b6000819050614ee782614ec5565b919050565b6000614ef782614ed9565b9050919050565b614f0781614eec565b82525050565b6000602082019050614f226000830184614efe565b92915050565b60008060408385031215614f3f57614f3e6146a1565b5b6000614f4d858286016147b1565b9250506020614f5e85828601614918565b9150509250929050565b6000606082019050614f7d6000830186614770565b614f8a6020830185614770565b614f976040830184614770565b949350505050565b600060ff82169050919050565b614fb581614f9f565b8114614fc057600080fd5b50565b600081359050614fd281614fac565b92915050565b60008060408385031215614fef57614fee6146a1565b5b6000614ffd858286016147b1565b925050602061500e85828601614fc3565b9150509250929050565b600080fd5b60008083601f8401126150335761503261492d565b5b8235905067ffffffffffffffff8111156150505761504f615018565b5b60208301915083600182028301111561506c5761506b614b3b565b5b9250929050565b600080600080600080600060c0888a031215615092576150916146a1565b5b60006150a08a828b016147b1565b97505060206150b18a828b01614fc3565b96505060406150c28a828b01614918565b955050606088013567ffffffffffffffff8111156150e3576150e26146a6565b5b6150ef8a828b0161501d565b9450945050608088013567ffffffffffffffff811115615112576151116146a6565b5b61511e8a828b01614a34565b92505060a088013567ffffffffffffffff81111561513f5761513e6146a6565b5b61514b8a828b01614a34565b91505092959891949750929550565b600080600080600060808688031215615176576151756146a1565b5b6000615184888289016147b1565b955050602061519588828901614fc3565b945050604086013567ffffffffffffffff8111156151b6576151b56146a6565b5b6151c28882890161501d565b9350935050606086013567ffffffffffffffff8111156151e5576151e46146a6565b5b6151f188828901614a34565b9150509295509295909350565b60008060008060608587031215615218576152176146a1565b5b6000615226878288016147b1565b945050602061523787828801614fc3565b935050604085013567ffffffffffffffff811115615258576152576146a6565b5b6152648782880161501d565b925092505092959194509250565b600067ffffffffffffffff82111561528d5761528c614937565b5b61529682614839565b9050602081019050919050565b60006152b66152b184615272565b614997565b9050828152602081018484840111156152d2576152d1614932565b5b6152dd8482856149e3565b509392505050565b600082601f8301126152fa576152f961492d565b5b813561530a8482602086016152a3565b91505092915050565b6000806000806080858703121561532d5761532c6146a1565b5b600085013567ffffffffffffffff81111561534b5761534a6146a6565b5b61535787828801614ba9565b945050602085013567ffffffffffffffff811115615378576153776146a6565b5b61538487828801614c6c565b935050604085013567ffffffffffffffff8111156153a5576153a46146a6565b5b6153b187828801614d4d565b925050606085013567ffffffffffffffff8111156153d2576153d16146a6565b5b6153de878288016152e5565b91505092959194509250565b600060208284031215615400576153ff6146a1565b5b600061540e84828501614918565b91505092915050565b60007fff0000000000000000000000000000000000000000000000000000000000000082169050919050565b61544c81615417565b82525050565b600081519050919050565b600082825260208201905092915050565b6000819050602082019050919050565b61548781614766565b82525050565b6000615499838361547e565b60208301905092915050565b6000602082019050919050565b60006154bd82615452565b6154c7818561545d565b93506154d28361546e565b8060005b838110156155035781516154ea888261548d565b97506154f5836154a5565b9250506001810190506154d6565b5085935050505092915050565b600060e082019050615525600083018a615443565b8181036020830152615537818961484a565b9050818103604083015261554b818861484a565b905061555a6060830187614770565b61556760808301866148d7565b61557460a0830185614e6c565b81810360c083015261558681846154b2565b905098975050505050505050565b600080600080608085870312156155ae576155ad6146a1565b5b60006155bc878288016147b1565b94505060206155cd87828801614fc3565b93505060406155de87828801614918565b925050606085013567ffffffffffffffff8111156155ff576155fe6146a6565b5b61560b87828801614a34565b91505092959194509250565b600065ffffffffffff82169050919050565b61563281615617565b82525050565b600060208201905061564d6000830184615629565b92915050565b60008060006060848603121561566c5761566b6146a1565b5b600061567a86828701614918565b935050602061568b868287016147b1565b925050604084013567ffffffffffffffff8111156156ac576156ab6146a6565b5b6156b886828701614a34565b9150509250925092565b60006156cd826148a5565b9050919050565b60006156df826156c2565b9050919050565b6156ef816156d4565b81146156fa57600080fd5b50565b60008135905061570c816156e6565b92915050565b600060208284031215615728576157276146a1565b5b6000615736848285016156fd565b91505092915050565b600080600080600060a0868803121561575b5761575a6146a1565b5b600061576988828901614918565b955050602061577a88828901614918565b945050604086013567ffffffffffffffff81111561579b5761579a6146a6565b5b6157a788828901614c6c565b935050606086013567ffffffffffffffff8111156157c8576157c76146a6565b5b6157d488828901614c6c565b925050608086013567ffffffffffffffff8111156157f5576157f46146a6565b5b61580188828901614a34565b9150509295509295909350565b60008083601f8401126158245761582361492d565b5b8235905067ffffffffffffffff81111561584157615840615018565b5b60208301915083600182028301111561585d5761585c614b3b565b5b9250929050565b6000806000806060858703121561587e5761587d6146a1565b5b600061588c87828801614918565b945050602061589d878288016147b1565b935050604085013567ffffffffffffffff8111156158be576158bd6146a6565b5b6158ca8782880161580e565b925092505092959194509250565b600080604083850312156158ef576158ee6146a1565b5b60006158fd85828601614918565b925050602061590e858286016147b1565b9150509250929050565b600080600080600060a08688031215615934576159336146a1565b5b600061594288828901614918565b955050602061595388828901614918565b9450506040615964888289016147b1565b9350506060615975888289016147b1565b925050608086013567ffffffffffffffff811115615996576159956146a6565b5b6159a288828901614a34565b9150509295509295909350565b6000819050919050565b60006159d46159cf6159ca846148a5565b6159af565b6148a5565b9050919050565b60006159e6826159b9565b9050919050565b60006159f8826159db565b9050919050565b615a08816159ed565b82525050565b6000602082019050615a2360008301846159ff565b92915050565b7f4e487b7100000000000000000000000000000000000000000000000000000000600052602260045260246000fd5b60006002820490506001821680615a7057607f821691505b602082108103615a8357615a82615a29565b5b50919050565b6000615aa4615a9f615a9a84615617565b6159af565b614766565b9050919050565b615ab481615a89565b82525050565b6000604082019050615acf6000830185614770565b615adc6020830184615aab565b9392505050565b7f4e487b7100000000000000000000000000000000000000000000000000000000600052603260045260246000fd5b6000615b25615b2084615272565b614997565b905082815260208101848484011115615b4157615b40614932565b5b615b4c84828561480f565b509392505050565b600082601f830112615b6957615b6861492d565b5b8151615b79848260208601615b12565b91505092915050565b600060208284031215615b9857615b976146a1565b5b600082015167ffffffffffffffff811115615bb657615bb56146a6565b5b615bc284828501615b54565b91505092915050565b600081905092915050565b6000615be28385615bcb565b9350615bef8385846149e3565b82840190509392505050565b6000615c08828486615bd6565b91508190509392505050565b615c1d81614f9f565b82525050565b600060e082019050615c38600083018a614e6c565b615c456020830189614770565b615c526040830188615c14565b615c5f60608301876148d7565b615c6c6080830186614770565b615c7960a0830185614e6c565b615c8660c0830184614e6c565b98975050505050505050565b7f4e487b7100000000000000000000000000000000000000000000000000000000600052601160045260246000fd5b6000615ccc82614766565b9150615cd783614766565b9250828203905081811115615cef57615cee615c92565b5b92915050565b6000615d0082615617565b9150615d0b83615617565b9250828203905065ffffffffffff811115615d2957615d28615c92565b5b92915050565b6000606082019050615d4460008301866148d7565b615d516020830185614770565b615d5e6040830184614770565b949350505050565b600060a082019050615d7b6000830188614e6c565b615d886020830187614770565b615d956040830186615c14565b615da260608301856148d7565b615daf6080830184614770565b9695505050505050565b615dc281615617565b8114615dcd57600080fd5b50565b600081519050615ddf81615db9565b92915050565b600060208284031215615dfb57615dfa6146a1565b5b6000615e0984828501615dd0565b91505092915050565b6000615e1d82615617565b9150615e2883615617565b9250828201905065ffffffffffff811115615e4657615e45615c92565b5b92915050565b600081519050919050565b600082825260208201905092915050565b6000819050602082019050919050565b615e81816148c5565b82525050565b6000615e938383615e78565b60208301905092915050565b6000602082019050919050565b6000615eb782615e4c565b615ec18185615e57565b9350615ecc83615e68565b8060005b83811015615efd578151615ee48882615e87565b9750615eef83615e9f565b925050600181019050615ed0565b5085935050505092915050565b600081519050919050565b600082825260208201905092915050565b6000819050602082019050919050565b600081519050919050565b600082825260208201905092915050565b6000615f5d82615f36565b615f678185615f41565b9350615f7781856020860161480f565b615f8081614839565b840191505092915050565b6000615f978383615f52565b905092915050565b6000602082019050919050565b6000615fb782615f0a565b615fc18185615f15565b935083602082028501615fd385615f26565b8060005b8581101561600f5784840389528151615ff08582615f8b565b9450615ffb83615f9f565b925060208a01995050600181019050615fd7565b50829750879550505050505092915050565b6000608082019050818103600083015261603b8187615eac565b9050818103602083015261604f81866154b2565b905081810360408301526160638185615fac565b90506160726060830184614e6c565b95945050505050565b60008151905061608a8161479a565b92915050565b6000602082840312156160a6576160a56146a1565b5b60006160b48482850161607b565b91505092915050565b60006160c882614766565b91506160d383614766565b92508282026160e181614766565b915082820484148315176160f8576160f7615c92565b5b5092915050565b7f4e487b7100000000000000000000000000000000000000000000000000000000600052601260045260246000fd5b600061613982614766565b915061614483614766565b925082616154576161536160ff565b5b828204905092915050565b60006040820190506161746000830185614770565b6161816020830184614770565b9392505050565b600060608201905061619d6000830186614770565b6161aa6020830185614efe565b6161b76040830184614e6c565b949350505050565b6161c881614730565b81146161d357600080fd5b50565b6000815190506161e5816161bf565b92915050565b600060208284031215616201576162006146a1565b5b600061620f848285016161d6565b91505092915050565b600060808201905061622d6000830187614770565b61623a6020830186615c14565b6162476040830185614770565b8181036060830152616259818461484a565b905095945050505050565b600082825260208201905092915050565b600061628082615f36565b61628a8185616264565b935061629a81856020860161480f565b6162a381614839565b840191505092915050565b600060a0820190506162c36000830188614770565b6162d06020830187615c14565b6162dd6040830186614770565b81810360608301526162ef818561484a565b905081810360808301526163038184616275565b90509695505050505050565b6000819050919050565b600061633461632f61632a8461630f565b6159af565b614f9f565b9050919050565b61634481616319565b82525050565b600060408201905061635f600083018561633b565b61636c6020830184614770565b9392505050565b600061637e82614766565b915061638983614766565b92508282019050808211156163a1576163a0615c92565b5b92915050565b600081519050919050565b600082825260208201905092915050565b6000819050602082019050919050565b600082825260208201905092915050565b60006163ef826147f3565b6163f981856163d3565b935061640981856020860161480f565b61641281614839565b840191505092915050565b600061642983836163e4565b905092915050565b6000602082019050919050565b6000616449826163a7565b61645381856163b2565b935083602082028501616465856163c3565b8060005b858110156164a15784840389528151616482858261641d565b945061648d83616431565b925060208a01995050600181019050616469565b50829750879550505050505092915050565b6000610120820190506164c9600083018c614770565b6164d6602083018b6148d7565b81810360408301526164e8818a615eac565b905081810360608301526164fc81896154b2565b90508181036080830152616510818861643e565b905081810360a08301526165248187615fac565b905061653360c0830186614770565b61654060e0830185614770565b818103610100830152616553818461484a565b90509a9950505050505050505050565b600060408201905061657860008301856148d7565b6165856020830184614770565b9392505050565b60006040820190506165a160008301856148d7565b6165ae60208301846148d7565b9392505050565b6000819050919050565b60006165da6165d56165d0846165b5565b6159af565b614f9f565b9050919050565b6165ea816165bf565b82525050565b600060408201905061660560008301856165e1565b6166126020830184614770565b9392505050565b6000819050919050565b60008160001b9050919050565b600061664b61664661664184616619565b616623565b614d7b565b9050919050565b61665b81616630565b82525050565b600060a082019050818103600083015261667b8188615eac565b9050818103602083015261668f81876154b2565b905081810360408301526166a38186615fac565b90506166b26060830185616652565b6166bf6080830184614e6c565b9695505050505050565b6000815190506166d881614d85565b92915050565b6000602082840312156166f4576166f36146a1565b5b6000616702848285016166c9565b91505092915050565b600060c08201905081810360008301526167258189615eac565b9050818103602083015261673981886154b2565b9050818103604083015261674d8187615fac565b905061675c6060830186616652565b6167696080830185614e6c565b61677660a0830184614770565b979650505050505050565b60006040820190506167966000830185614e6c565b81810360208301526167a88184616275565b90509392505050565b60006167bc82615f36565b6167c68185615bcb565b93506167d681856020860161480f565b80840191505092915050565b60006167ee82846167b1565b915081905092915050565b6000819050919050565b600061681e616819616814846167f9565b6159af565b614f9f565b9050919050565b61682e81616803565b82525050565b60006040820190506168496000830185616825565b6168566020830184614770565b9392505050565b600061686882614f9f565b915061687383614f9f565b9250828201905060ff81111561688c5761688b615c92565b5b92915050565b60008160011c9050919050565b6000808291508390505b60018511156168e9578086048111156168c5576168c4615c92565b5b60018516156168d45780820291505b80810290506168e285616892565b94506168a9565b94509492505050565b60008261690257600190506169be565b8161691057600090506169be565b816001811461692657600281146169305761695f565b60019150506169be565b60ff84111561694257616941615c92565b5b8360020a91508482111561695957616958615c92565b5b506169be565b5060208310610133831016604e8410600b84101617156169945782820a90508381111561698f5761698e615c92565b5b6169be565b6169a1848484600161689f565b925090508184048111156169b8576169b7615c92565b5b81810290505b9392505050565b60006169d082614766565b91506169db83614f9f565b9250616a087fffffffffffffffffffffffffffffffffffffffffffffffffffffffffffffffff84846168f2565b905092915050565b600060a082019050616a256000830188614e6c565b616a326020830187614e6c565b616a3f6040830186614e6c565b616a4c6060830185614770565b616a5960808301846148d7565b9695505050505050565b6000608082019050616a786000830187614e6c565b616a856020830186615c14565b616a926040830185614e6c565b616a9f6060830184614e6c565b9594505050505056fea264697066735822122011c978c6558db163deeb47e1a5adbf8a2238f5ed3bec3f26fba5ef726524029764736f6c634300081b0033",
  "linkReferences": {},
  "deployedLinkReferences": {}
}