{
  "_format": "hh-sol-artifact-1",
  "contractName": "Cert",
  "sourceName": "contracts/Certi.sol",
  "abi": [
    {
      "inputs": [
        {
          "internalType": "address",
          "name": "initialOwner",
          "type": "address"
        }
      ],
      "stateMutability": "nonpayable",
      "type": "constructor"
    },
    {
      "inputs": [
        {
          "internalType": "address",
          "name": "owner",
          "type": "address"
        }
      ],
      "name": "OwnableInvalidOwner",
      "type": "error"
    },
    {
      "inputs": [
        {
          "internalType": "address",
          "name": "account",
          "type": "address"
        }
      ],
      "name": "OwnableUnauthorizedAccount",
      "type": "error"
    },
    {
      "anonymous": false,
      "inputs": [
        {
          "indexed": true,
          "internalType": "address",
          "name": "previousOwner",
          "type": "address"
        },
        {
          "indexed": true,
          "internalType": "address",
          "name": "newOwner",
          "type": "address"
        }
      ],
      "name": "OwnershipTransferred",
      "type": "event"
    },
    {
      "anonymous": false,
      "inputs": [
        {
          "indexed": false,
          "internalType": "uint256",
          "name": "cid",
          "type": "uint256"
        },
        {
          "indexed": false,
          "internalType": "string",
          "name": "cidate",
          "type": "string"
        }
      ],
      "name": "issued",
      "type": "event"
    },
    {
      "inputs": [
        {
          "internalType": "uint256",
          "name": "",
          "type": "uint256"
        }
      ],
      "name": "Certificates",
      "outputs": [
        {
          "internalType": "string",
          "name": "name",
          "type": "string"
        },
        {
          "internalType": "string",
          "name": "course",
          "type": "string"
        },
        {
          "internalType": "string",
          "name": "grade",
          "type": "string"
        },
        {
          "internalType": "string",
          "name": "date",
          "type": "string"
        }
      ],
      "stateMutability": "view",
      "type": "function"
    },
    {
      "inputs": [
        {
          "internalType": "uint256",
          "name": "_id",
          "type": "uint256"
        },
        {
          "internalType": "string",
          "name": "_name",
          "type": "string"
        },
        {
          "internalType": "string",
          "name": "_course",
          "type": "string"
        },
        {
          "internalType": "string",
          "name": "_grade",
          "type": "string"
        },
        {
          "internalType": "string",
          "name": "_date",
          "type": "string"
        }
      ],
      "name": "issue",
      "outputs": [],
      "stateMutability": "nonpayable",
      "type": "function"
    },
    {
      "inputs": [],
      "name": "owner",
      "outputs": [
        {
          "internalType": "address",
          "name": "",
          "type": "address"
        }
      ],
      "stateMutability": "view",
      "type": "function"
    },
    {
      "inputs": [],
      "name": "renounceOwnership",
      "outputs": [],
      "stateMutability": "nonpayable",
      "type": "function"
    },
    {
      "inputs": [
        {
          "internalType": "address",
          "name": "newOwner",
          "type": "address"
        }
      ],
      "name": "transferOwnership",
      "outputs": [],
      "stateMutability": "nonpayable",
      "type": "function"
    }
  ],
  "bytecode": "0x608060405234801561001057600080fd5b50604051611004380380611004833981810160405281019061003291906101e2565b80600073ffffffffffffffffffffffffffffffffffffffff168173ffffffffffffffffffffffffffffffffffffffff16036100a55760006040517f1e4fbdf700000000000000000000000000000000000000000000000000000000815260040161009c919061021e565b60405180910390fd5b6100b4816100bb60201b60201c565b5050610239565b60008060009054906101000a900473ffffffffffffffffffffffffffffffffffffffff169050816000806101000a81548173ffffffffffffffffffffffffffffffffffffffff021916908373ffffffffffffffffffffffffffffffffffffffff1602179055508173ffffffffffffffffffffffffffffffffffffffff168173ffffffffffffffffffffffffffffffffffffffff167f8be0079c531659141344cd1fd0a4f28419497f9722a3daafe3b4186f6b6457e060405160405180910390a35050565b600080fd5b600073ffffffffffffffffffffffffffffffffffffffff82169050919050565b60006101af82610184565b9050919050565b6101bf816101a4565b81146101ca57600080fd5b50565b6000815190506101dc816101b6565b92915050565b6000602082840312156101f8576101f761017f565b5b6000610206848285016101cd565b91505092915050565b610218816101a4565b82525050565b6000602082019050610233600083018461020f565b92915050565b610dbc806102486000396000f3fe608060405234801561001057600080fd5b50600436106100575760003560e01c8063715018a61461005c5780638da5cb5b146100665780639622c83614610084578063d1e7be26146100b7578063f2fde38b146100d3575b600080fd5b6100646100ef565b005b61006e610103565b60405161007b919061066d565b60405180910390f35b61009e600480360381019061009991906106d2565b61012c565b6040516100ae949392919061078f565b60405180910390f35b6100d160048036038101906100cc9190610925565b61037c565b005b6100ed60048036038101906100e89190610a3c565b610453565b005b6100f76104d9565b6101016000610560565b565b60008060009054906101000a900473ffffffffffffffffffffffffffffffffffffffff16905090565b600160205280600052604060002060009150905080600001805461014f90610a98565b80601f016020809104026020016040519081016040528092919081815260200182805461017b90610a98565b80156101c85780601f1061019d576101008083540402835291602001916101c8565b820191906000526020600020905b8154815290600101906020018083116101ab57829003601f168201915b5050505050908060010180546101dd90610a98565b80601f016020809104026020016040519081016040528092919081815260200182805461020990610a98565b80156102565780601f1061022b57610100808354040283529160200191610256565b820191906000526020600020905b81548152906001019060200180831161023957829003601f168201915b50505050509080600201805461026b90610a98565b80601f016020809104026020016040519081016040528092919081815260200182805461029790610a98565b80156102e45780601f106102b9576101008083540402835291602001916102e4565b820191906000526020600020905b8154815290600101906020018083116102c757829003601f168201915b5050505050908060030180546102f990610a98565b80601f016020809104026020016040519081016040528092919081815260200182805461032590610a98565b80156103725780601f1061034757610100808354040283529160200191610372565b820191906000526020600020905b81548152906001019060200180831161035557829003601f168201915b5050505050905084565b6103846104d9565b6040518060800160405280858152602001848152602001838152602001828152506001600087815260200190815260200160002060008201518160000190816103cd9190610c75565b5060208201518160010190816103e39190610c75565b5060408201518160020190816103f99190610c75565b50606082015181600301908161040f9190610c75565b509050507f63c63848983d6b8da62305c82b2acd19735be5904a39f9a88b81e74e05c9cdbd8582604051610444929190610d56565b60405180910390a15050505050565b61045b6104d9565b600073ffffffffffffffffffffffffffffffffffffffff168173ffffffffffffffffffffffffffffffffffffffff16036104cd5760006040517f1e4fbdf70000000000000000000000000000000000000000000000000000000081526004016104c4919061066d565b60405180910390fd5b6104d681610560565b50565b6104e1610624565b73ffffffffffffffffffffffffffffffffffffffff166104ff610103565b73ffffffffffffffffffffffffffffffffffffffff161461055e57610522610624565b6040517f118cdaa7000000000000000000000000000000000000000000000000000000008152600401610555919061066d565b60405180910390fd5b565b60008060009054906101000a900473ffffffffffffffffffffffffffffffffffffffff169050816000806101000a81548173ffffffffffffffffffffffffffffffffffffffff021916908373ffffffffffffffffffffffffffffffffffffffff1602179055508173ffffffffffffffffffffffffffffffffffffffff168173ffffffffffffffffffffffffffffffffffffffff167f8be0079c531659141344cd1fd0a4f28419497f9722a3daafe3b4186f6b6457e060405160405180910390a35050565b600033905090565b600073ffffffffffffffffffffffffffffffffffffffff82169050919050565b60006106578261062c565b9050919050565b6106678161064c565b82525050565b6000602082019050610682600083018461065e565b92915050565b6000604051905090565b600080fd5b600080fd5b6000819050919050565b6106af8161069c565b81146106ba57600080fd5b50565b6000813590506106cc816106a6565b92915050565b6000602082840312156106e8576106e7610692565b5b60006106f6848285016106bd565b91505092915050565b600081519050919050565b600082825260208201905092915050565b60005b8381101561073957808201518184015260208101905061071e565b60008484015250505050565b6000601f19601f8301169050919050565b6000610761826106ff565b61076b818561070a565b935061077b81856020860161071b565b61078481610745565b840191505092915050565b600060808201905081810360008301526107a98187610756565b905081810360208301526107bd8186610756565b905081810360408301526107d18185610756565b905081810360608301526107e58184610756565b905095945050505050565b600080fd5b600080fd5b7f4e487b7100000000000000000000000000000000000000000000000000000000600052604160045260246000fd5b61083282610745565b810181811067ffffffffffffffff82111715610851576108506107fa565b5b80604052505050565b6000610864610688565b90506108708282610829565b919050565b600067ffffffffffffffff8211156108905761088f6107fa565b5b61089982610745565b9050602081019050919050565b82818337600083830152505050565b60006108c86108c384610875565b61085a565b9050828152602081018484840111156108e4576108e36107f5565b5b6108ef8482856108a6565b509392505050565b600082601f83011261090c5761090b6107f0565b5b813561091c8482602086016108b5565b91505092915050565b600080600080600060a0868803121561094157610940610692565b5b600061094f888289016106bd565b955050602086013567ffffffffffffffff8111156109705761096f610697565b5b61097c888289016108f7565b945050604086013567ffffffffffffffff81111561099d5761099c610697565b5b6109a9888289016108f7565b935050606086013567ffffffffffffffff8111156109ca576109c9610697565b5b6109d6888289016108f7565b925050608086013567ffffffffffffffff8111156109f7576109f6610697565b5b610a03888289016108f7565b9150509295509295909350565b610a198161064c565b8114610a2457600080fd5b50565b600081359050610a3681610a10565b92915050565b600060208284031215610a5257610a51610692565b5b6000610a6084828501610a27565b91505092915050565b7f4e487b7100000000000000000000000000000000000000000000000000000000600052602260045260246000fd5b60006002820490506001821680610ab057607f821691505b602082108103610ac357610ac2610a69565b5b50919050565b60008190508160005260206000209050919050565b60006020601f8301049050919050565b600082821b905092915050565b600060088302610b2b7fffffffffffffffffffffffffffffffffffffffffffffffffffffffffffffffff82610aee565b610b358683610aee565b95508019841693508086168417925050509392505050565b6000819050919050565b6000610b72610b6d610b688461069c565b610b4d565b61069c565b9050919050565b6000819050919050565b610b8c83610b57565b610ba0610b9882610b79565b848454610afb565b825550505050565b600090565b610bb5610ba8565b610bc0818484610b83565b505050565b5b81811015610be457610bd9600082610bad565b600181019050610bc6565b5050565b601f821115610c2957610bfa81610ac9565b610c0384610ade565b81016020851015610c12578190505b610c26610c1e85610ade565b830182610bc5565b50505b505050565b600082821c905092915050565b6000610c4c60001984600802610c2e565b1980831691505092915050565b6000610c658383610c3b565b9150826002028217905092915050565b610c7e826106ff565b67ffffffffffffffff811115610c9757610c966107fa565b5b610ca18254610a98565b610cac828285610be8565b600060209050601f831160018114610cdf5760008415610ccd578287015190505b610cd78582610c59565b865550610d3f565b601f198416610ced86610ac9565b60005b82811015610d1557848901518255600182019150602085019450602081019050610cf0565b86831015610d325784890151610d2e601f891682610c3b565b8355505b6001600288020188555050505b505050505050565b610d508161069c565b82525050565b6000604082019050610d6b6000830185610d47565b8181036020830152610d7d8184610756565b9050939250505056fea264697066735822122055822cba868c1b0240312f54fc81ad9fb21826aa431ed21a0ef3fc05f287e2b264736f6c634300081b0033",
  "linkReferences": {},
  "deployedLinkReferences": {}
}